:100000000C94A1000C94C9000C94C9000C94C90074
:100010000C94C9000C94C9000C94C9000C94C9003C
:100020000C94C9000C94C9000C94C9000C94C9002C
:100030000C94C9000C94C9000C94C9000C94C9001C
:100040000C9491060C94C9000C94C9000C94C9003E
:100050000C94C9000C94C9000C94C9000C94C900FC
:100060000C940C110C94C90007634236B79BD8A7B7
:100070001A39685618AEBAAB558C1D3CB7CC5763CD
:10008000BD6DEDFD753EF6177231BF000000803F7B
:1000900008000000BE922449123EABAAAA2ABECD97
:1000A000CCCC4C3E00000080BEABAAAAAA3E000009
:1000B0000000BF000000803F000000000008417801
:1000C000D3BB4387D1133D190E3CC3BD4282AD2B38
:1000D0003E68EC8276BED98FE1A93E4C80EFFFBE30
:1000E00001C4FF7F3F000000000000000008000284
:1000F00001000003040700000000000000000102EE
:1001000004081020408001020408102001020408A5
:100110001020040404040404040402020202020283
:1001200003030303030300000000250028002B0045
:1001300000000000240027002A009501A10B1410E4
:10014000E20111241FBECFEFD8E0DEBFCDBF11E02A
:10015000A0E0B1E0E2E4F1E302C005900D92AC3919
:10016000B107D9F722E0ACE9B1E001C01D92A13D91
:10017000B207E1F710E0C0EAD0E004C02197FE0129
:100180000E941C16CD39D107C9F70E94A9040C940E
:1001900094180C94000006960E94970C91E081112F
:1001A00001C090E0892F089506960C94740C0F936B
:1001B0001F93CF93DF938C010A5F1F4F413039F4B7
:1001C000C801DF91CF911F910F910C944C0CD42F4B
:1001D000C62F40E0C8010E944C0CD23049F441E0E7
:1001E0006C2FC801DF91CF911F910F910C94A80C37
:1001F000DF91CF911F910F9108956091F30182EFEC
:1002000091E00E94AE0B8CEE91E00E94D70C20E0B2
:1002100042E060E180ED91E00C94770ECF93DF93A4
:10022000CDB7DEB72C970FB6F894DEBF0FBECDBFAB
:1002300022E030E040E050E066EC71E0CE0107964D
:100240000E94DE09BE01695F7F4F80EC91E00E9451
:10025000150925E030E043E050E066EC71E0CE01A6
:1002600001960E94DE09BE016F5F7F4F8AEB91E02D
:100270000E941509CE0101960E943508CE0107960D
:100280000E9435082C960FB6F894DEBF0FBECDBF86
:10029000DF91CF9108951F93CF93DF9300D000D0CB
:1002A00000D0CDB7DEB74091CC015091CD01609127
:1002B000CE017091CF018091B6019091B701A091CC
:1002C000B801B091B901481759076A077B0714F0C4
:1002D00061E001C060E086E00E94040860EC71E02B
:1002E000CE0101960E940C096AEB71E0CE010196E5
:1002F0000E94790960EB71E00E94BC09182FCE01C1
:1003000001960E943508112311F061E001C060E000
:1003100089E00E94040826960FB6F894DEBF0FBE4F
:10032000CDBFDF91CF911F91089527E031E043E0E9
:1003300064E08CEE91E00E94CD0CECEEF1E08CE4F8
:1003400091E09183808317826AE98BEE91E00E94AD
:100350008F0D83E08093E60160E081E10E94C80791
:1003600080ED91E00E94B90D86E591E09093D10176
:100370008093D0018AED91E00E94410A6CE571E022
:1003800086EC91E00E94A3086CE571E080EC91E0BE
:100390000E94A3086CE571E08AEB91E00E94A3083B
:1003A0006CE571E080EB91E00E94A3086CE571E0E0
:1003B00086EA91E00E94A3086CE571E080EA91E092
:1003C0000C94A30880EA91E00E94350886EA91E047
:1003D0000E94350880EB91E00E9435088AEB91E09D
:1003E0000E94350880EC91E00E94350886EC91E08F
:1003F0000C943508AC0160E00A960C94240ACF9363
:10040000DF93CDB7DEB72A970FB6F894DEBF0FBEE5
:10041000CDBF80ED91E00E94FB0D40E060E080EDFB
:1004200091E00E940B0E80ED91E00E94FA0164E1E0
:1004300071E00E94330BDC01ED91FC910280F381AD
:10044000E02D09951092AC011092AD011092AE0111
:100450001092AF018091AC019091AD01A091AE01DD
:10046000B091AF010297A105B1050CF058C08CEE18
:1004700091E00E94790D40E06CEE71E0CE010196B2
:100480000E94580DBE016F5F7F4F86EA91E00E9487
:100490001509CE0101960E9435088CEE91E00E946C
:1004A000840D60EA71E0CE0101960E940C0966EAB3
:1004B00071E0CE0101960E947909BC0180EA91E0C9
:1004C0000E94F508CE0101960E94350841E060E0E7
:1004D00080ED91E00E940B0E80ED91E00E94FA0108
:1004E00060EA71E00E94700BDC01ED91FC910280EA
:1004F000F381E02D09958091AC019091AD01A0911F
:10050000AE01B091AF010196A11DB11D8093AC0168
:100510009093AD01A093AE01B093AF019BCF8091BA
:10052000A0019091A1010E941E18092E000CAA0B97
:10053000BB0B8093B6019093B701A093B801B09321
:10054000B90141E060E080ED91E00E940B0E409126
:10055000B6015091B7016091B8017091B90180ED79
:1005600091E04F83588769877A870E94FA014F810B
:10057000588569857A850E94640A64E271E00E9468
:10058000330BDC01ED91FC910280F381E02D0995A4
:100590002A960FB6F894DEBF0FBECDBFDF91CF9184
:1005A0000895CF93DF9300D000D000D0CDB7DEB751
:1005B00080ED91E00E94FB0D40E060E080ED91E075
:1005C0000E940B0E80ED91E00E94FA016BE271E057
:1005D0000E94330BDC01ED91FC910280F381E02D50
:1005E00009951092AC011092AD011092AE011092DB
:1005F000AF018091AC019091AD01A091AE01B0919D
:10060000AF010497A105B1050CF058C08CEE91E044
:100610000E94790D40E06CEE71E0CE0101960E94DF
:10062000580DBE016F5F7F4F86EA91E00E94150969
:10063000CE0101960E9435088CEE91E00E94840D57
:1006400060EB71E0CE0101960E940C0966EA71E050
:10065000CE0101960E947909BC0180EB91E00E94D5
:10066000F508CE0101960E94350841E060E080ED7A
:1006700091E00E940B0E80ED91E00E94FA0160EB88
:1006800071E00E94700BDC01ED91FC910280F3811E
:10069000E02D09958091AC019091AD01A091AE0142
:1006A000B091AF010196A11DB11D8093AC01909353
:1006B000AD01A093AE01B093AF019BCF41E060E0EC
:1006C00080ED91E00E940B0E80ED91E00E94FA0116
:1006D00060EB71E00E94700B64E271E00E94330BEA
:1006E000DC01ED91FC910280F381E02D09952696C5
:1006F0000FB6F894DEBF0FBECDBFDF91CF91089546
:1007000061E086E00E94C80761E087E00E94C807B8
:1007100061E089E00E94C80760E086E00E9404086A
:1007200060E087E00E94040860E089E00E9404081D
:100730001092CC011092CD011092CE011092CF01F7
:100740006CE571E086EC91E00E9421096CE571E0B6
:1007500080EC91E00E9421096CE571E08AEB91E068
:100760000E9421091092AC011092AD011092AE01CD
:100770001092AF011092B6011092B7011092B80119
:100780001092B9016CE571E080EB91E00E942109C3
:100790006CE571E080EA91E00E9421090E94FF016E
:1007A00068E873E180E090E00E9400070E94D102B7
:1007B00068E873E180E090E00C9400070E94FD007F
:1007C0000C9480038F929F92AF92BF92CF92DF9250
:1007D000EF92FF9280ED91E00E94FB0D40E060E01F
:1007E00080ED91E00E940B0E8091E6010E9482074D
:1007F000BC01990F880B990B0E944E1320E030E04A
:1008000040EA5BE30E9403146B017C016093E70103
:100810007093E8018093E9019093EA0120E030E0D1
:1008200040E450E40E94701429E831E444E651ECBD
:100830000E9403144B015C01A7019601C701B60198
:100840000E94031425EC30E648E952E40E940314A8
:100850009B01AC01C501B4010E943A124B015C013D
:1008600023E333ED42EC53E4C701B6010E940314C5
:100870009B01AC01C501B4010E943A1228E430E5A5
:100880004CE55FE30E9439126B017C0120E030E00F
:10089000A9010E94A61287FF03C0C12CD12C7601AA
:1008A000C0929C01D0929D01E0929E01F0929F0126
:1008B00080ED91E00E94FA0164E371E00E94330B45
:1008C000B701A6010E948E0ADC01ED91FC91028025
:1008D000F381E02D099541E060E080ED91E00E9418
:1008E0000B0E8BEE91E00E94950D6C01990FEE08B6
:1008F000FF08C092CC01D092CD01E092CE01F092DF
:10090000CF0180ED91E00E94FA016AE371E00E945C
:10091000330BB701A6010E94640ADC01ED91FC9142
:100920000280F381E02D09950E940E010E944B0187
:1009300064EF71E080E090E0FF90EF90DF90CF9067
:10094000BF90AF909F908F900C9400070C94E2039F
:1009500008950E9447070E94A8040E94DE03C0E099
:10096000D0E00E94A6042097E1F30E940000F9CF96
:10097000CF92DF92EF92FF920F931F93CF93DF936B
:100980006C017A018B01C0E0D0E0CE15DF0589F063
:10099000D8016D918D01D601ED91FC910190F0810E
:1009A000E02DC6010995892B11F47E0102C0219624
:1009B000ECCFC701DF91CF911F910F91FF90EF9086
:1009C000DF90CF9008956115710579F0FB010190DA
:1009D0000020E9F73197AF01461B570BDC01ED9181
:1009E000FC910280F381E02D099480E090E008956D
:1009F000DC01ED91FC91DB0114964D915C91159712
:100A00006D917C910280F381E02D09940C94E304B4
:100A1000DC01ED91FC910190F081E02D09946AE5F3
:100A200071E00C94E3044F925F926F927F92EF9289
:100A3000FF920F931F93CF93DF93CDB7DEB7A197AC
:100A40000FB6F894DEBF0FBECDBF7C01FA01CB011B
:100A500019A2223008F42AE08E010F5D1F4F422EAA
:100A6000512C612C712CBF01A30192010E94FA1537
:100A7000F901CA01015011096A3014F4605D01C026
:100A8000695CD8016C93232B242B252B61F7B801CB
:100A9000C7010E94E304A1960FB6F894DEBF0FBE13
:100AA000CDBFDF91CF911F910F91FF90EF907F907D
:100AB0006F905F904F900895CF92DF92EF92FF92E8
:100AC0000F931F93CF93DF93EC016A017B012115F4
:100AD000310579F4E881F9810190F081E02D642FEE
:100AE000DF91CF911F910F91FF90EF90DF90CF900A
:100AF00009942A303105E9F477FF1AC06DE20E94AB
:100B000008058C0144275527BA014C195D096E0967
:100B10007F092AE0CE010E941305800F911FDF910B
:100B2000CF911F910F91FF90EF90DF90CF9008959C
:100B30002AE0B701A601CE01DF91CF911F910F915D
:100B4000FF90EF90DF90CF900C9413059A01AB01CA
:100B5000770F660B770B0C945C054F925F926F9248
:100B60007F928F929F92AF92BF92CF92DF92EF923D
:100B7000FF92CF93DF93EC016A017B01B22E9A01C1
:100B8000AB01C701B6010E94C014882319F06DE5BE
:100B900071E027C026013701E89477F82FEF3FEF87
:100BA0004FE75FE7C301B2010E94C01481110DC07D
:100BB0002FEF3FEF4FE75FE7C301B2010E94A6129C
:100BC00018161CF461E671E00CC02FEF3FEF4FE701
:100BD0005FE4C701B6010E94FE1318169CF465E697
:100BE00071E0CE01DF91CF91FF90EF90DF90CF9039
:100BF000BF90AF909F908F907F906F905F904F903D
:100C00000C94E3042FEF3FEF4FE75FECC701B60111
:100C10000E94A61287FDE3CF20E030E0A901C701C2
:100C2000B6010E94A61287FF0AC06DE2CE010E94A3
:100C300008054C01F7FAF094F7F8F09402C0812C03
:100C4000912CA12C60E070E080E09FE3AB1441F0B8
:100C500020E030E040E251E40E94AB12A394F6CFD2
:100C60009B01AC01C701B6010E943A122B013C0165
:100C70000E941D136B017C010E944C139B01AC016F
:100C8000C301B2010E9439122B013C012AE0B701D5
:100C9000A601CE010E9413057C01E80CF91CBB20C3
:100CA00031F06EE2CE010E940805E80EF91EDB2C41
:100CB000DD2029F120E030E040E251E4C301B2013F
:100CC0000E9403142B013C010E941D134B01A12C17
:100CD000B12C2AE0B501A401CE010E941305E80E53
:100CE000F91EC501B4010E944C139B01AC01C30164
:100CF000B2010E9439122B013C01DA94D9CFC7010D
:100D0000DF91CF91FF90EF90DF90CF90BF90AF90A9
:100D10009F908F907F906F905F904F9008950C946C
:100D2000AD051F920F920FB60F9211242F933F9390
:100D30008F939F93AF93BF938091F5019091F601AC
:100D4000A091F701B091F8013091F40123E0230F55
:100D50002D3720F40196A11DB11D05C026E8230FF3
:100D60000296A11DB11D2093F4018093F50190938B
:100D7000F601A093F701B093F8018091F9019091E9
:100D8000FA01A091FB01B091FC010196A11DB11DDA
:100D90008093F9019093FA01A093FB01B093FC01B9
:100DA000BF91AF919F918F913F912F910F900FBE67
:100DB0000F901F9018953FB7F8948091F90190918A
:100DC000FA01A091FB01B091FC0126B5A89B05C0DA
:100DD0002F3F19F00196A11DB11D3FBFBA2FA92FBA
:100DE000982F8827820F911DA11DB11DBC01CD0137
:100DF00042E0660F771F881F991F4A95D1F7089523
:100E00008F929F92AF92BF92CF92DF92EF92FF921A
:100E10006B017C010E94DB064B015C01C114D10413
:100E2000E104F10401F10E94E50E0E94DB06DC0101
:100E3000CB0188199909AA09BB09883E9340A105ED
:100E4000B10560F321E0C21AD108E108F10888EE8B
:100E5000880E83E0981EA11CB11CC114D104E104CA
:100E6000F10419F7DBCFFF90EF90DF90CF90BF90A8
:100E7000AF909F908F9008958230910538F0880F41
:100E8000991F880F991F05970197F1F70895789496
:100E900084B5826084BD84B5816084BD85B582607F
:100EA00085BD85B5816085BDEEE6F0E0808181601D
:100EB0008083E1E8F0E0108280818260808380811D
:100EC00081608083E0E8F0E0808181608083E1EBF5
:100ED000F0E0808184608083E0EBF0E080818160DD
:100EE0008083EAE7F0E08081846080838081826093
:100EF000808380818160808380818068808310927C
:100F0000C10008958E3008F08E5087702091060140
:100F100090E4299F90011124822B80937C00809182
:100F20007A00806480937A0080917A0086FDFCCFFD
:100F3000809178002091790090E0922B0895833081
:100F400081F028F4813099F08230A1F00895873043
:100F5000A9F08830B9F08430D1F4809180008F7D81
:100F600003C0809180008F7780938000089584B5BE
:100F70008F7702C084B58F7D84BD08958091B000C5
:100F80008F7703C08091B0008F7D8093B00008956B
:100F9000CF93DF9390E0FC01E250FF4F2491FC01DE
:100FA000EE5EFE4F8491882361F190E0880F991FD7
:100FB000FC01E05DFE4FC591D491FC01EA5DFE4F5E
:100FC000A591B491611109C09FB7F89488812095CB
:100FD00082238883EC912E230BC0623061F49FB78B
:100FE000F8943881822F809583238883EC912E2B6F
:100FF0002C939FBF06C08FB7F894E8812E2B2883CF
:101000008FBFDF91CF9108951F93CF93DF93282F48
:1010100030E0F901E651FF4F8491F901E250FF4FB2
:10102000D491F901EE5EFE4FC491CC23C9F0162F86
:1010300081110E949F07EC2FF0E0EE0FFF1FEA5D89
:10104000FE4FA591B4918FB7F894111105C09C91F2
:10105000ED2FE095E92302C0EC91ED2BEC938FBFCF
:10106000DF91CF911F9108950895FC0180819181B6
:101070000C94B716CF93DF93EC0188819981009788
:1010800011F00E94B716198218821D821C821B82E1
:101090001A82DF91CF9108950F931F93CF93DF931F
:1010A000EC018B016F5F7F4F888199810E944F1700
:1010B000009731F0998388831B830A8381E001C004
:1010C00080E0DF91CF911F910F910895CF93DF932F
:1010D000EC0188819981892B29F08A819B8186176F
:1010E000970760F4CE010E944C08882341F08C8160
:1010F0009D81892B19F4E881F981108281E0DF91CB
:10110000CF910895EF92FF920F931F93CF93DF93A8
:10111000EC017B018A01BA010E946608811104C0BA
:10112000CE010E943A0807C01D830C83B701888155
:1011300099810E944E18CE01DF91CF911F910F919E
:10114000FF90EF900895FC011182108213821282A9
:10115000158214826115710551F0FB010190002088
:10116000E9F73197AF01461B570B0C94820808959D
:101170000F931F93CF93DF938C01EB01FC018081D0
:1011800091810097D1F0688179816115710599F09D
:1011900024E338E0232B79F0428153812C813D8177
:1011A0004217530740F00E944E188C819D81F80130
:1011B0009583848313C00E94B71688819981F801B2
:1011C000918380838A819B81938382838C819D819B
:1011D00095838483198218821B821A821D821C8245
:1011E000DF91CF911F910F910895CF93DF93EC0181
:1011F000FB018617970761F06081718161157105A8
:1012000029F0448155810E94820802C00E943A0858
:10121000CE01DF91CF910895FC01118210821382DB
:101220001282158214820C94F508CF93DF93EC019F
:101230008617970711F00E94B808CE01DF91CF9171
:101240000895CF93DF93EC016115710559F0FB010F
:1012500001900020E9F73197AF01461B570B0E9420
:10126000820802C00E943A08CE01DF91CF91089512
:10127000EF92FF920F931F93CF93DF93FC01248192
:1012800035816115710511F480E019C041155105D2
:10129000A9F07B01EC018A01020F131FB8010E9423
:1012A0006608882389F3288139818C819D81B70163
:1012B000820F931F0E944E181D830C8381E0DF91E3
:1012C000CF911F910F91FF90EF900895CF93DF93EF
:1012D00000D0CDB7DEB769831A8241E050E0BE018D
:1012E0006F5F7F4F0E9438090F900F90DF91CF9171
:1012F0000895CF93DF93EC01FB0144815581608118
:1013000071810E943809811103C0CE010E943A0800
:10131000CE01DF91CF910895CF93DF93DC01ED9162
:10132000FC91EB01A881B981309711F01097C9F4B5
:10133000109759F0EB012C813D81232B31F08C91DA
:1013400090E091958195910914C0309781F0DC016E
:1013500014968D919C911597892B49F0808190E08E
:1013600008C0BD01CF01DF91CF910C94451880E0FA
:1013700090E0DF91CF910895FC0144815581FB01FC
:10138000248135814217530729F40E948C0921E0FA
:10139000892B09F020E0822F0895FC0124813581FA
:1013A0006217730748F480819181009729F0FC014E
:1013B000E60FF71F8081089580E00895BF92CF92D5
:1013C000DF92EF92FF920F931F93CF93DF937C01F5
:1013D0006B018A01E9012417350720F4812F890167
:1013E000C42FD82F6CE571E0C7010E94A308D60175
:1013F00014968D919C91159708171907D0F48C17A6
:101400009D0708F4EC01D601ED91FC911197EC0FCA
:10141000FD1FB08010824D915C91BA01600F711F69
:10142000C7010E942109D601ED91FC91EC0FFD1F2F
:10143000B082C701DF91CF911F910F91FF90EF9084
:10144000DF90CF90BF900895FC0153834283648363
:1014500015820895CF93DF93EC018A819B810097D9
:1014600069F06F8161110E9408058C81882331F039
:101470008A819B81DF91CF910C940F05DF91CF91F1
:101480000895FC018DE691E091838083138212829E
:10149000148215821682178282E090E091878087FD
:1014A0008AE090E0938782870895FC016681662335
:1014B00051F0858191E0980F9583882321F08281F6
:1014C00093810C94080508950F931F93CF93DF9396
:1014D00000D000D0CDB7DEB78C01FC0182819381B2
:1014E000892B91F0C80149835A836B837C830E94C6
:1014F000550AF8012285338549815A816B817C81A7
:10150000828193810E945C05C8010F900F900F901B
:101510000F90DF91CF911F910F9108950F931F931B
:10152000CF93DF9300D000D0CDB7DEB78C01FC01A4
:1015300082819381892B91F0C80149835A836B83FF
:101540007C830E94550AF8012085318549815A81A2
:101550006B817C81828193810E948F06C8010F90EC
:101560000F900F900F90DF91CF911F910F910895E1
:10157000CF92DF92EF92FF920F931F93CF938C0144
:101580006B0162E2FC01828193810E940805E12CDB
:10159000F12CF60184819581E816F90608F056C011
:1015A000B701C6010E94CD09C82F803268F087328A
:1015B00059F0823249F0B701C6010E94CD09682F67
:1015C000F801828193811DC06CE5F80182819381CD
:1015D0000E940805F80182819381C232A9F040F48B
:1015E000CA30B1F0CD30B1F0C930B1F464E709C010
:1015F000C03331F0CC3551F0C73271F467E201C02D
:1016000060E30E9408051EC062E2FBCF6CE5F9CFE3
:101610006EE6F7CF62E7F5CF68E70E94080540E184
:1016200050E060E070E0F801828193810E94A6059D
:10163000CF706C2F70E040E150E0F801828193811F
:101640000E94A605FFEFEF1AFF0AA3CF62E2F8019E
:1016500082819381CF911F910F91FF90EF90DF9046
:10166000CF900C9408050F931F93CF93DF93CDB7C2
:10167000DEB728970FB6F894DEBF0FBECDBF8C0142
:10168000FC0182819381892BF9F0C8016F837887EF
:101690000E94550AF80186816F817885882379F048
:1016A000CE0101960E94A308BE016F5F7F4FC80163
:1016B0000E94B80ACE0101960E94350805C0F801C3
:1016C000828193810E940605C80128960FB6F8947E
:1016D000DEBF0FBECDBFDF91CF911F910F91089557
:1016E0000F931F93CF93DF9300D0CDB7DEB78C015C
:1016F000FC0182819381892BA1F0C80169837A83DF
:101700000E94550AF801868169817A81882321F037
:10171000C8010E94B80A05C0F801828193810E9425
:10172000F804C8010F900F90DF91CF911F910F9196
:101730000895EFEFF0E083E08083608381E090E044
:10174000089581E092E00E94410AEDEFF1E01382FA
:10175000128285E791E0918380830895CF93DF9390
:10176000EC01683008F067E068838DE092E00E9449
:10177000810F6881606270E08DE092E00E94950FB9
:1017800060E08DE092E00E94420F6FEF8DE092E00A
:101790000E94420F60E08DE092E00E94420F60E004
:1017A0008DE092E00E94420F60E08DE092E00E94A6
:1017B000420F60E08DE092E00E94420F60E08DE019
:1017C00092E00E94420F60E08DE092E00E94420FA2
:1017D00060E08DE092E00E94420F60E08DE092E0D8
:1017E0000E94420F60E08DE092E00E94420F8DE087
:1017F00092E0DF91CF910C9411101F93CF93DF9360
:101800001F92CDB7DEB7162FFC0180818062682F52
:1018100070E08DE092E049830E94950F612F8DE08A
:1018200092E00E94420F4981642F8DE092E00E9475
:10183000420F8DE092E00F90DF91CF911F910C94B9
:101840001110462F69E00C94FD0B1F93CF93DF938B
:10185000EC01162F28812062622F70E08DE092E06B
:101860000E94950F612F8DE092E00E94420F8DE063
:1018700092E00E9411106881606270E041E050E0E7
:101880008DE092E00E940E108DE092E00E94EE0E3C
:10189000DF91CF911F9108950F931F93CF93DF9303
:1018A0006830D0F4D42FC62F8C0160E00E94250C44
:1018B00041E050E001C0440FCA95EAF7D11102C0DF
:1018C000482B02C04095482360E0C801DF91CF91CA
:1018D0001F910F910C94FD0BDF91CF911F910F91F0
:1018E000089569E00C94250C0F931F93CF93DF9319
:1018F0006830C0F4D42FC62F8C010E94710C61E0B7
:1019000070E001C0660FCA95EAF7D13011F4682B78
:1019100002C060956823C801DF91CF911F910F919C
:101920000C94210CDF91CF911F910F910895CF93CB
:10193000683058F4C62F0E94710C90E002C0959553
:101940008795CA95E2F7817001C080E0CF91089534
:101950000F931F93CF93DF936830D0F4D42FC62F0B
:101960008C0166E00E94250C41E050E001C0440F6C
:10197000CA95EAF7D13011F4482B02C040954823AC
:1019800066E0C801DF91CF911F910F910C94FD0B80
:10199000DF91CF911F910F910895FC018DE791E0A8
:1019A00091838083628343833583248308951F93C7
:1019B000CF93DF93EC0110E08A811817A0F4E8813F
:1019C000F9810190F081E02D41E0612FCE01099570
:1019D000E881F9810280F381E02D41E0612FCE01A1
:1019E00009951F5FE9CF10E08B81181760F4E8813B
:1019F000F9816A81610F0190F081E02D42E0CE0112
:101A000009951F5FF1CFDF91CF911F910895DF926C
:101A1000EF92FF920F931F93CF93DF93EC0110E0AF
:101A2000D12CE12CF12C8A811817C8F5E881F981B5
:101A30000280F381E02D40E0612FCE01099500E0A6
:101A40008B81E881F981081708F56A81600F0480AD
:101A5000F581E02DCE010995811116C0DD2029F018
:101A6000D394EE24EA94FE2C0FC08B81EC81FD818F
:101A7000189FE00DF11D1124E00FF11DE0800E2CE8
:101A8000000CFF08DD24D3940F5FDACF0280F381CE
:101A9000E02D41E0612FCE0109951F5FC4CFC70142
:101AA000DF91CF911F910F91FF90EF90DF900895FC
:101AB000EF92FF921F93CF93DF93EC017B01142FE2
:101AC0006CE571E00E94A308C7010E94070D811117
:101AD00003C01111F9CF06C0181624F4682FCE01E7
:101AE0000E946609CE01DF91CF911F91FF90EF9088
:101AF0000895CF93DF93EC01CE010E94070D892B4F
:101B0000D9F3DF91CF910895CF93DF93EC01CE010C
:101B10000E94070D892BD9F7DF91CF91089570E0CE
:101B200075956795FC0160830895CF93DF93EC0171
:101B300068818DE092E00E948B0F60E08DE092E082
:101B40000E94420F8DE092E00E941110688170E0C7
:101B500041E050E08DE092E00E940E108DE092E0B6
:101B60000E94EE0E803891050CF09A95DF91CF918E
:101B70000895FC011382128227E831E0318320832B
:101B80000895EF92FF920F931F93CF93DF937C0101
:101B9000C62F6EE370E08DE092E00E94950F870102
:101BA000D0E0C8018E199F098C179D0744F4F801F5
:101BB00061918F018DE092E00E94420FF2CF8DE0A3
:101BC00092E0DF91CF911F910F91FF90EF900C94D5
:101BD0001110CF93DF9300D0CDB7DEB790E8998393
:101BE0008A8362E0CE0101960E94C10D0F900F9092
:101BF000DF91CF91089581E00E94E90D80ED97E09B
:101C00000C943C07FC019581892F84608583892F82
:101C10008C600C94E90DCF93DF9300D0CDB7DEB785
:101C2000411102C0606801C0606C80E889836A83EA
:101C300062E0CE0101960E94C10D0F900F90DF91DE
:101C4000CF910895CF93DF9300D0CDB7DEB780E476
:101C500089836A8362E0CE0101960E94C10D81E012
:101C600090E00F900F90DF91CF9108951F93CF9345
:101C7000DF931F92CDB7DEB7162F62E670E08DE0DE
:101C800092E049830E94950F612F8DE092E00E94BF
:101C9000420F4981642F8DE092E00E94420F8DE057
:101CA00092E00F90DF91CF911F910C941110EF9261
:101CB000FF921F93CF93DF931F92CDB7DEB77C01C6
:101CC000142F462F64E029830E94360E412F63E0D3
:101CD000C7010E94360E2981422F62E0C7010F9092
:101CE000DF91CF911F91FF90EF900C94360E0F93E0
:101CF0001F93CF93DF9300D0CDB7DEB78C018DE07B
:101D000092E02A8349830E94810F49812A814230CF
:101D100020F0F801848188608483F801408711866F
:101D2000222329F0413019F484818460848362E3A2
:101D300070E080E090E00E940007F80184818062FA
:101D40000E94E90D84E991E10E943C07F801848139
:101D500080620E94E90D86E990E00E943C07F8014C
:101D6000848180620E94E90DF801848180620E9472
:101D7000E90D84E0F8018583C8010E94020EC801C4
:101D80000E94FB0D82E0F801868386E00E94E90D47
:101D900040E060E0C8010E94360E40E061E0C8010A
:101DA0000E94360E4AEA68E0C8010E94360E2FEF04
:101DB0004FEF6FEFC8010F900F90DF91CF911F9100
:101DC0000F910C94570E0E941918089580913D02AE
:101DD00090E020913E02821B9109089590913E026D
:101DE00080913D02981750F4E92FF0E0E15CFD4F3F
:101DF000208130E09F5F90933E0202C02FEF3FEFC3
:101E0000C9010895E0913E0280913D02E81730F447
:101E1000F0E0E15CFD4F808190E008958FEF9FEF4F
:101E200008950895CF92DF92EF92FF920F931F9340
:101E3000CF93DF937C01262F972F8A01809119027F
:101E4000882391F0C62FD72F6E01C40ED51ECC1556
:101E5000DD0571F06991D701ED91FC910190F08160
:101E6000E02DC7010995F3CF642F822F0E94D41073
:101E7000C801DF91CF911F910F91FF90EF90DF90FC
:101E8000CF900895CF93DF931F92CDB7DEB76983CC
:101E9000209119022223D1F020911A02203240F021
:101EA00021E030E0FC013383228380E090E015C024
:101EB00080911B02E82FF0E0E45EFD4F9981908352
:101EC0008F5F80931B0280931A0205C061E0CE01F0
:101ED00001960E94D41081E090E00F90DF91CF91A5
:101EE0000895FC011382128288EE93E0A0E0B0E036
:101EF00084839583A683B7838FE891E09183808361
:101F0000089510923E0210923D0210921B02109210
:101F10001A020C94181081E08093190260933C021D
:101F200010921B0210921A0208950C948B0F0F93BB
:101F3000062F21E040911A026CE172E080913C0290
:101F40000E947E1010921B0210921A021092190227
:101F50000F9108954F925F926F927F92AF92BF92CE
:101F6000CF92EF92FF920F931F93CF93DF935C0179
:101F7000F62ED42F28013901EE2021F10E948B0F7B
:101F8000CE2DC43008F0C3E0C150C0F0D501ED91B2
:101F9000FC91B8E0CB9FC0011124A301920104C0C1
:101FA00056954795379527958A95D2F7CA01B90175
:101FB0000190F081E02DC5010995E6CF60E0C501F3
:101FC0000E94970F4D2FD13208F040E22C2D6FE385
:101FD00072E08F2D0E94361010923E0280933D02D7
:101FE000DF91CF911F910F91FF90EF90CF90BF9015
:101FF000AF907F906F905F904F900895CF92EF9247
:102000000F931F93C22EE12C00E010E098010E9474
:10201000AA0F1F910F91EF90CF90089521E00C949B
:10202000FE0F61E00C94970F8DE092E00C94710F1D
:102030001092CC0281E08093CA021092C90261E042
:1020400082E10E94040861E083E10E940408E9EB58
:10205000F0E080818E7F808380818D7F808388E423
:102060008093B80085E48093BC000895413208F065
:1020700043C09091CC029111FCCF91E09093CC029F
:102080002093CA022FEF20935F021092A402240F24
:102090002093A3029093CB029091CB02880F892BBF
:1020A0008093CB028091C902813061F41092C90201
:1020B0008091CB028093BB008091BC0083FDF8CF60
:1020C00085EC01C085EE8093BC008091CC0281300C
:1020D000E1F38091A402841710F44091A40225EA50
:1020E00032E0FB01D9018A2F821B841718F48D91ED
:1020F0008193F9CF842F089580E008950F934132A2
:1021000008F04AC09091CC029111FCCF32E030939C
:10211000CC020093CA023FEF30935F021092A402F8
:102120004093A302FB0165EA72E0DB013A2F361B04
:10213000341718F431913D93F9CF1092CB023091BE
:10214000CB02880F832B8093CB028091C902813010
:1021500061F41092C9028091CB028093BB00809100
:10216000BC0083FDF8CF85EC01C085EE8093BC00F8
:10217000222321F08091CC028230D1F380915F0242
:102180008F3F79F080915F02803241F080915F0251
:10219000803331F094E005C091E003C092E001C0CB
:1021A00093E0892F0F91089540918102262F30E00E
:1021B000240F311D21323105DCF42091CC02243072
:1021C000C9F4FC0180E090E0861758F43091810258
:1021D0002191DC01AD57BD4FA30FB11D2C9301968A
:1021E000F3CF80918102680F6093810280E00895AF
:1021F00081E0089582E0089585ED8093BC00809190
:10220000BC0084FDFCCF1092CC02089585EC809335
:10221000BC001092CC0208951F920F920FB60F923D
:1022200011242F933F934F935F936F937F938F93DB
:102230009F93AF93BF93EF93FF938091B900887FF3
:10224000803609F49EC078F5883209F45DC090F4B8
:10225000803109F456C038F4882309F4F5C0883079
:1022600009F44FC0F5C0883109F44EC0803209F43A
:102270005FC0EEC0803409F46AC058F4803309F4BA
:1022800057C0883309F0E4C080935F020E940611B2
:10229000DFC0803509F44FC0883509F45DC088344B
:1022A00009F0D6C0D3C0883909F4C4C0A8F488376F
:1022B00009F467C038F4883609F463C0803709F43C
:1022C00060C0C6C0883809F4B5C0803909F45FC061
:1022D000803809F0BDC05BC0803B09F483C038F48E
:1022E000803A09F466C0883A09F47CC0B1C0803CE9
:1022F00009F4A4C0883C09F4A1C0883B09F487C054
:10230000A7C08091CB0210C09091A4028091A3023B
:10231000981770F5E091A40281E08E0F8093A402DB
:10232000F0E0EB55FD4F80818093BB0085EC83C0CE
:1023300080935F028BC0E091A40281E08E0F8093B6
:10234000A4028091BB00F0E0EB55FD4F808390919B
:10235000A4028091A3026BC0E091A40281E08E0FE1
:102360008093A4028091BB00F0E0EB55FD4F808389
:102370008091CA0281116AC081E08093C90284EA17
:102380005EC083E08093CC0210926002CFCF809138
:102390006002803208F04EC0E091600281E08E0F52
:1023A000809360028091BB00F0E0EF59FD4F808385
:1023B000BDCF0E94061180916002803230F4E0911E
:1023C0006002F0E0EF59FD4F10826091600270E012
:1023D000E091C502F091C60281E692E00995109263
:1023E000600236C084E08093CC0210928202109288
:1023F0008102E091C702F091C802099580918102A3
:10240000811105C081E08093810210928302E091E6
:10241000820281E08E0F80938202F0E0ED57FD4F43
:1024200080818093BB0090918202809181029817F5
:1024300008F47CCF85E88093BC000AC085EC8093CB
:10244000BC001092CC0204C010925F020E94FC10EB
:10245000FF91EF91BF91AF919F918F917F916F917C
:102460005F914F913F912F910F900FBE0F901F9052
:1024700018955058BB27AA270E9451120C94C413D8
:102480000E94B61338F00E94BD1320F039F49F3F2C
:1024900019F426F40C94B3130EF4E095E7FB0C94B6
:1024A000AD13E92F0E94D51358F3BA1762077307CB
:1024B0008407950720F079F4A6F50C94F7130EF431
:1024C000E0950B2EBA2FA02D0B01B90190010C0144
:1024D000CA01A0011124FF27591B99F0593F50F45C
:1024E000503E68F11A16F040A22F232F342F4427B4
:1024F000585FF3CF469537952795A795F0405395AC
:10250000C9F77EF41F16BA0B620B730B840BBAF07B
:102510009150A1F0FF0FBB1F661F771F881FC2F7E6
:102520000EC0BA0F621F731F841F48F487957795FA
:102530006795B795F7959E3F08F0B0CF9395880FB4
:1025400008F09927EE0F9795879508950E948913B3
:1025500008F481E008950E94BF120C94C4130E94F5
:10256000BD1358F00E94B61340F029F45F3F29F0E4
:102570000C94AD1351110C94F8130C94B3130E94E6
:10258000D51368F39923B1F3552391F3951B550B9C
:10259000BB27AA2762177307840738F09F5F5F4F36
:1025A000220F331F441FAA1FA9F335D00E2E3AF075
:1025B000E0E832D091505040E695001CCAF72BD08D
:1025C000FE2F29D0660F771F881FBB1F26173707DE
:1025D0004807AB07B0E809F0BB0B802DBF01FF2710
:1025E00093585F4F3AF09E3F510578F00C94AD132D
:1025F0000C94F8135F3FE4F3983ED4F386957795F7
:102600006795B795F7959F5FC9F7880F911D9695C8
:10261000879597F90895E1E0660F771F881FBB1F24
:10262000621773078407BA0720F0621B730B840BD1
:10263000BA0BEE1F88F7E09508950E94DD1388F02D
:102640009F5798F0B92F9927B751B0F0E1F0660F76
:10265000771F881F991F1AF0BA95C9F714C0B130B7
:1026600091F00E94F713B1E008950C94F713672FCF
:10267000782F8827B85F39F0B93FCCF386957795E6
:102680006795B395D9F73EF49095809570956195CF
:102690007F4F8F4F9F4F0895E89409C097FB3EF4FA
:1026A00090958095709561957F4F8F4F9F4F99239F
:1026B000A9F0F92F96E9BB279395F695879577951D
:1026C0006795B795F111F8CFFAF4BB0F11F460FFDD
:1026D0001BC06F5F7F4F8F4F9F4F16C0882311F035
:1026E00096E911C0772321F09EE8872F762F05C049
:1026F000662371F096E8862F70E060E02AF09A95E4
:10270000660F771F881FDAF7880F9695879597F9D8
:102710000895990F0008550FAA0BE0E8FEEF161672
:102720001706E807F907C0F012161306E407F507C5
:1027300098F0621B730B840B950B39F40A2661F039
:10274000232B242B252B21F408950A2609F4A140DC
:10275000A6958FEF811D811D089597F99F6780E8E9
:1027600070E060E008959FEF80EC089500240A94E3
:102770001616170618060906089500240A9412165C
:102780001306140605060895092E0394000C11F48F
:10279000882352F0BB0F40F4BF2B11F460FF04C03C
:1027A0006F5F7F4F8F4F9F4F089557FD9058440F95
:1027B000551F59F05F3F71F04795880F97FB991FA0
:1027C00061F09F3F79F0879508951216130614065D
:1027D000551FF2CF4695F1DF08C0161617061806EA
:1027E000991FF1CF86957105610508940895E894C5
:1027F000BB2766277727CB0197F908950E94891395
:1028000008F48FEF08950E9416140C94C4130E94CC
:10281000B61338F00E94BD1320F0952311F00C94EC
:10282000AD130C94B31311240C94F8130E94D51318
:1028300070F3959FC1F3950F50E0551F629FF00113
:10284000729FBB27F00DB11D639FAA27F00DB11D2C
:10285000AA1F649F6627B00DA11D661F829F2227B5
:10286000B00DA11D621F739FB00DA11D621F839F3C
:10287000A00D611D221F749F3327A00D611D231F12
:10288000849F600D211D822F762F6A2F11249F5760
:1028900050409AF0F1F088234AF0EE0FFF1FBB1F63
:1028A000661F771F881F91505040A9F79E3F510522
:1028B00080F00C94AD130C94F8135F3FE4F3983E52
:1028C000D4F3869577956795B795F795E7959F5FCC
:1028D000C1F7FE2B880F911D9695879597F908955E
:1028E000FA01EE0FFF1F309621053105A1F16115A8
:1028F000710561F48038BFE39B0749F16894903813
:10290000810561F08038BFEF9B0741F099234AF5BC
:10291000FF3FE1053105210519F1E8940894E79599
:10292000D901AA2329F4AB2FBE2FF85FD0F310C032
:10293000FF5F70F4A695E0F7F73950F019F0FF3A11
:1029400038F49F779F930DD00F9007FC905808950F
:1029500046F00C94B31360E070E080E89FE30895C4
:102960004FE79F775F934F933F932F930E9470158C
:102970002F913F914F915F910E9403140C94CD14BD
:102980000E948913880B990B089529F416F00C9472
:10299000AD130C94F7130C94B3130E94DD13A8F33A
:1029A0009638A0F707F80F92E8942BE33AEA48EB41
:1029B0005FE70E9419140F920F920F924DB75EB706
:1029C0000F920E94B815E8E6F0E00E94FF144F91C4
:1029D0005F91EF91FF91E595EE1FFF1F49F0FE57C4
:1029E000E0684427EE0F441FFA95E1F74195550B37
:1029F0000E9432150F9007FE0C9426150895DF9360
:102A0000CF931F930F93FF92EF92DF927B018C0184
:102A1000689406C0DA2EEF010E941614FE01E894B5
:102A2000A5912591359145915591A6F3EF010E940D
:102A30005112FE019701A801DA9469F7DF90EF9037
:102A4000FF900F911F91CF91DF9108959B01AC01F1
:102A500060E070E080E89FE30C94AB120C94AD133F
:102A60000C94EC150E94DD13D8F39923C9F3940F4D
:102A7000511DA3F39150504094F059F0882332F047
:102A8000660F771F881F91505040C1F79E3F510538
:102A90002CF7880F911D9695879597F908955F3FBC
:102AA000ACF0983E9CF0BB27869577956795B795D7
:102AB00008F4B1609395C1F7BB0F58F711F460FFAC
:102AC000E8CF6F5F7F4F8F4F9F4FE3CF0C94F8138A
:102AD00016F00C94EC150C94B31368940C94AD138D
:102AE0000E94DD13A8F39923C1F3AEF3DF93CF93D4
:102AF0001F930F93FF92C92FDD2788232AF0219778
:102B0000660F771F881FDAF720E030E040E85FEBC0
:102B10009FE3883920F0803E38F021968F770E941D
:102B20003A12E0E9F0E004C00E943A12EDEBF0E066
:102B30000E94FF148B01BE01EC01FB2E6F5771093F
:102B40007595771F880B990B0E944E1328E132E789
:102B500041E35FE30E941614AF2D9801AE01FF9090
:102B60000F911F91CF91DF910E9451120C94C413C9
:102B7000FA01DC01AA0FBB1F9B01AC01BF5728F46F
:102B8000222733274427507820C0B75190F4AB2F29
:102B90000024469537952795011CA395D2F3002074
:102BA00071F0220F331F441FB395DAF30ED00C944B
:102BB000391261307105A0E88A07B94630F49B01EB
:102BC000AC016627772788279078309621F02083FC
:102BD00031834283538308959F3F31F0915020F415
:102BE000879577956795B795880F911D96958795E9
:102BF00097F90895A1E21A2EAA1BBB1BFD010DC077
:102C0000AA1FBB1FEE1FFF1FA217B307E407F5079C
:102C100020F0A21BB30BE40BF50B661F771F881F78
:102C2000991F1A9469F760957095809590959B010E
:102C3000AC01BD01CF010895EE0FFF1F0590F49187
:102C4000E02D0994CF93DF938230910510F482E058
:102C500090E0E091CF02F091D00220E030E0C0E0BF
:102C6000D0E0309711F14081518148175907C0F0E9
:102C70004817590761F482819381209719F09B834B
:102C80008A832BC09093D0028093CF0226C0211557
:102C9000310519F04217530718F49A01BE01DF01FC
:102CA000EF010280F381E02DDCCF2115310509F120
:102CB000281B390B2430310590F412968D919C918C
:102CC00013976115710521F0FB019383828304C082
:102CD0009093D0028093CF02FD01329644C0FD0153
:102CE000E20FF31F81939193225031092D933C936E
:102CF0003AC02091CD023091CE02232B41F4209195
:102D00000201309103013093CE022093CD02209135
:102D10000001309101012115310541F42DB73EB775
:102D20004091040150910501241B350BE091CD0227
:102D3000F091CE02E217F307A0F42E1B3F0B2817E9
:102D4000390778F0AC014E5F5F4F2417350748F024
:102D50004E0F5F1F5093CE024093CD02819391930B
:102D600002C0E0E0F0E0CF01DF91CF9108950F9332
:102D70001F93CF93DF93009709F48CC0FC01329727
:102D8000138212820091CF021091D0020115110519
:102D900081F420813181820F931F2091CD023091E7
:102DA000CE022817390779F5F093CE02E093CD02D1
:102DB00071C0D80140E050E0AE17BF0750F4129642
:102DC0002D913C911397AD012115310509F1D901E0
:102DD000F3CF9D01DA013383228360817181860FF5
:102DE000971F8217930769F4EC0128813981260F18
:102DF000371F2E5F3F4F318320838A819B819383CE
:102E00008283452B29F4F093D002E093CF0242C095
:102E10001396FC93EE931297ED01499159919E01FF
:102E2000240F351FE217F30771F480819181840F1D
:102E3000951F029611969C938E938281938113968F
:102E40009C938E931297E0E0F0E0D80112968D915A
:102E50009C911397009719F0F8018C01F6CF8D9192
:102E60009C9198012E5F3F4F820F931F2091CD02BE
:102E70003091CE022817390769F4309729F410925F
:102E8000D0021092CF0202C0138212821093CE029F
:102E90000093CD02DF91CF911F910F910895A0E093
:102EA000B0E0E5E5F7E10C946118EC01009721F43E
:102EB000CB010E942216B8C0FC01E60FF71F9C014F
:102EC00022503109E217F30708F4ACC0D9010D9183
:102ED0001C91119706171707B0F00530110508F47B
:102EE0009FC0C80104978617970708F499C002503D
:102EF0001109061B170B019311936D937C93CF015E
:102F00000E94B7168DC05B01A01AB10A4C01800E59
:102F1000911EA091CF02B091D00240E050E0E12C90
:102F2000F12C109709F44AC0A815B905D1F56D9098
:102F30007C901197630182E0C80ED11CCA14DB0497
:102F400080F1A3014A195B096A0182E0C80ED11C15
:102F50001296BC9012971396AC91B5E0CB16D104A3
:102F600040F0B282A38351834083D9016D937C9357
:102F70000AC00E5F1F4FC301800F911FF90191839B
:102F80008083EB2DFA2FE114F10431F0D701139671
:102F9000FC93EE93129744C0F093D002E093CF02DB
:102FA0003FC08D919C9111974817590708F4AC01C7
:102FB0007D0112960D90BC91A02DB3CF8091CD02D2
:102FC0009091CE0288159905E1F446175707C8F489
:102FD0008091000190910101009741F48DB79EB757
:102FE0004091040150910501841B950BE817F907E6
:102FF000C8F4F093CE02E093CD02F90171836083AF
:103000000FC0CB010E9422167C01009759F0A80145
:10301000BE010E943C18CE010E94B716C70104C031
:10302000CE0102C080E090E0CDB7DEB7EEE00C94B8
:103030007D1881E090E0F8940C949418FC018827A6
:103040009927E89421912032E9F3293010F02E30AD
:10305000C8F32B3241F02D3239F4689404C00E9439
:103060005518820F911D219120532A30C0F31EF470
:10307000909581959F4F0895FB01DC0102C001905E
:103080000D9241505040D8F70895FB01DC018D911D
:10309000019080190110D9F3990B0895FB01DC010F
:1030A00001900D920020E1F708957AE0979F902D0E
:1030B000879F802D910D112408952F923F924F925A
:1030C0005F926F927F928F929F92AF92BF92CF92B8
:1030D000DF92EF92FF920F931F93CF93DF93CDB7C1
:1030E000DEB7CA1BDB0B0FB6F894DEBF0FBECDBF39
:1030F00009942A88398848885F846E847D848C840A
:103100009B84AA84B984C884DF80EE80FD800C8112
:103110001B81AA81B981CE0FD11D0FB6F894DEBFF5
:103120000FBECDBFED01089510E0C0EAD0E004C0AD
:10313000FE010E941C162196C13AD107C9F7F894E6
:02314000FFCFBF
:103142000000D1028000013132333435363738394C
:103152002A3023005365742074656D706572617442
:1031620075726500206973204F4B0053657420749B
:10317200696D65004C75783A200054656D70657212
:1031820061747572653A200000000000D700D40017
:10319200CB0000000000220EB8040D0A006E616E22
:1031A20000696E66006F76660000000000240A2A3D
:1031B2000A00000000990BB80400000000E30EE3CF
:1031C2000EE30E00000000220EB8040000000042D0
:0C31D2000F120FE60EEE0E020F110F00A0
:00000001FF
