:020000040000FA
:100000000C943B010C946C010C946C010C946C01ED
:100010000C946C010C946C010C946C010C946C01AC
:100020000C946C010C946C010C946C010C946C019C
:100030000C946C010C946C010C946C010C946C018C
:100040000C946C010C946C010C946C010C946C017C
:100050000C946C010C946C010C946C010C9479055B
:100060000C946C010C946C010C946C010C946C015C
:100070000C946C010C946C010C946C010C946C014C
:100080000C946C010C946C010C946C010C946C013C
:100090000C946C010C946C010C946C010C946C012C
:1000A0000C946C010C946C010C946C010C946C011C
:1000B0000C946C010C946C010C946C010C946C010C
:1000C0000C946C010C946C010C946C010C946C01FC
:1000D0000C946C010C946C010C946C010C946C01EC
:1000E0000C946C010C947C090C9429020C9425024C
:1000F0000C9402030C9431020C945A020C943402B6
:100100000C943A020C94AA070C944C020C945F02D3
:100110000C9456020C942B070C94A0070C945202DA
:100120000C942D020C94AF070C943E020C941F0209
:100130000C94C2020C9444020C9496070C9448024E
:100140000C9491020C9460020C949B070C94A507EC
:100150000C94640200002100240027002A002D00D6
:100160003000330001010000040107010A01000012
:100170002200250028002B002E003100340002014F
:100180000000050108010B010000200023002600EB
:1001900029002C002F00320000010000030106019D
:1001A00009010505050507050808080802020202FD
:1001B0000A0A080804040404010101010101010103
:1001C0000303030303030303040707070C0C0C0CCE
:1001D0000C0C0C0C020202020606060606060606B7
:1001E0000B0B0B0B0B0B0B0B010210202008081044
:1001F0002040102040800201020108040201010297
:10020000040810204080804020100804020180046F
:1002100002018040201008040201080402010102CA
:1002200004081020408001020408102040800000D3
:100230000A0B02090C0D0E08070304010000000060
:1002400000000000000000000000000000000000AE
:10025000000000000000000000001211100000006B
:10026000000000000000000000000000000000008E
:10027000000000007C0911241FBECFEFD1E2DEBFD9
:10028000CDBF00E00CBF12E0A0E0B2E0E0EFF9E18A
:1002900000E00BBF02C007900D92A838B107D9F754
:1002A00023E0A8E8B2E001C01D92AF30B207E1F749
:1002B00011E0CBE3D1E000E006C021970109802FD7
:1002C000FE010E94F709CA33D10780E00807A9F7A9
:1002D0000E94C3050C94F60C0C94000096E0899FD4
:1002E000D0011124A356BD4F90967C936E935F97D7
:1002F00091E091969C939197E0910A03F0910B0302
:1003000090910903992339F0309751F0811108C079
:100310008091B9021994309719F05C968C91FACFBC
:100320000895CF92DF92EF92FF920F931F9396E082
:10033000899FF0011124E356FD4F11A2278D30A1B2
:100340002130310551F178F02230310509F451C0E6
:100350002330310509F452C01F910F91FF90EF90A7
:10036000DF90CF9008956623B9F361E070E00E94BA
:100370006E012FB7F8948091990290919A02A09102
:100380009B02B0919C022FBF8093F5029093F602DE
:10039000A093F702B093F802DFCF9FB7F894C09014
:1003A0009902D0909A02E0909B02F0909C029FBF2D
:1003B0000091F5021091F6022091F7023091F802B7
:1003C000C01AD10AE20AF30A009107031091080348
:1003D00030E020E00C151D052E053F0550F462E0CD
:1003E00070E01F910F91FF90EF90DF90CF900C94F1
:1003F0006E016111B1CF63E070E0F3CF70E060E0B7
:10040000F0CF8150823108F05AC0E82FF0E0882701
:10041000E35FFD4F8F4F0C94F7092D0231021F024D
:10042000250229025F0234023A023E0244024802D7
:100430004C02520256025F025A026002640280912C
:1004400080008F77809380000895809180008F7D59
:10045000F9CF80918000877FF5CF84B58F7784BDF9
:10046000089584B58F7DFBCF8091B0008F77809306
:10047000B00008958091B0008F7DF9CF80919000F9
:100480008F77809390000895809190008F7DF9CFB1
:1004900080919000877FF5CF8091A0008F77809327
:1004A000A00008958091A0008F7DF9CF8091A000D9
:1004B000877FF5CF809120018F7780932001089569
:1004C000809120018F7DF9CF80912001877FF5CF2A
:1004D000CF93DF93282F30E0F901E25DFD4F849147
:1004E000F901E851FE4FD491F901EE55FE4FC49148
:1004F000CC23A1F081110E940102EC2FF0E0EE0F5D
:10050000FF1FE857FE4FA591B491EC91ED2381E0D8
:1005100090E009F480E0DF91CF91089580E090E0D1
:10052000FACF862F0C9468021F93CF93DF93282F66
:1005300030E0F901E25DFD4F8491F901E851FE4F91
:10054000D491F901EE55FE4FC491CC23A9F0162F9A
:1005500081110E940102EC2FF0E0EE0FFF1FE25923
:10056000FE4FA591B4918FB7F894EC91111108C08A
:10057000D095DE23DC938FBFDF91CF911F9108953B
:10058000DE2BF8CF862F642F0C949402CF93DF9349
:1005900090E0FC01E851FE4F24918E559E4FFC01E6
:1005A00084918823C9F090E0880F991FFC01EC5AD0
:1005B000FE4FA591B491FC01E259FE4FC591D49133
:1005C00061110DC09FB7F8948C91209582238C9374
:1005D0008881282328839FBFDF91CF9108956230BF
:1005E00051F49FB7F8943C91822F809583238C938C
:1005F000E8812E2BEFCF8FB7F894EC912E2B2C9314
:100600008FBFEACF862F642F0C94C60260E0FC01F6
:1006100080810E9494028BE090E00197F1F70895A9
:10062000CF92DF92FF920F931F93CF93DF93C82F48
:1006300061E088E20E94940260E087E20E949402F6
:1006400060E086E20E949402DEE161E08D2F0E946C
:10065000C60260E08D2F0E949402DF5FD632A9F7B8
:100660000C2E000CDD0B2EE192E0C92ED12CFF24C4
:10067000F394F20E8E010F5F1F4F0330110570F0DF
:10068000CE01B6010E94E309682F822F0E949402D6
:10069000D7FDE801D595C7952F2DE9CF6C2F822F77
:1006A0000E94940261E086E20E94940260E086E289
:1006B000DF91CF911F910F91FF90DF90CF900C941D
:1006C0009402CF92DF92FF920F931F93CF93DF9309
:1006D000C82F61E08AE00E94940260E089E00E94F5
:1006E000940260E088E00E949402D0E061E08D2FE7
:1006F0000E94C60260E08D2F0E949402DF5FD83016
:10070000A9F70C2E000CDD0B20E092E0C92ED12CB5
:10071000FF24F394F20E8E010F5F1F4F033011057B
:1007200070F0CE01B6010E94E309682F822F0E946B
:100730009402D7FDE801D595C7952F2DE9CF6C2FF1
:10074000822F0E94940261E088E00E94940260E09F
:1007500088E0DF91CF911F910F91FF90DF90CF90B4
:100760000C949402CF92DF92FF920F931F93CF933A
:10077000DF93EC0160E088E20E94940260E087E28F
:100780000E94940260E086E20E9494021EE161E011
:10079000812F0E94C60260E0812F0E9494021F5F99
:1007A0001632A9F72EE192E0C92ED12CFF24F39442
:1007B000F20E8E010F5F1F4F0330110570F0CE0156
:1007C000B6010E94E309682F822F0E949402D7FD90
:1007D000E801D595C7952F2DE9CF6C2F822F0E9468
:1007E000940261E086E20E94940260E086E2DF917A
:1007F000CF911F910F91FF90DF90CF900C949402B6
:100800000F931F93CF938C0160E08AE00E949402C3
:1008100060E089E00E94940260E088E00E94940217
:10082000C0E061E08C2F0E94C60260E08C2F0E9425
:100830009402CF5FC830A9F780E0C1E0C80F013053
:10084000110549F0B801617077270E94940215954F
:1008500007958C2FF2CF61E00E94940261E088E05E
:100860000E94940260E088E0CF911F910F910C9458
:100870009402FF920F931F93CF93DF93082FF62ECE
:1008800061E080910D030E94C602D0E0C0E010E05C
:10089000B8010C2E02C0759567950A94E2F7617055
:1008A00080910D030E94940261E080910E030E94EA
:1008B000940260E0FF2089F0C730D10571F4809187
:1008C0000D030E94C6022196C830D10509F7DF91B9
:1008D000CF911F910F91FF90089580910E030E9478
:1008E0009402F1CF0F931F93CF93DF9300D000D0EA
:1008F000CDB7DEB7182F062FECE0F3E0828121811F
:1009000030E0408150E05A8349833C832B83282F79
:1009100030E03E832D8360E00E94940261E0898193
:100920000E9494028BE090E00197F1F7812F880FED
:1009300060E080680E94390460E0802F0E943904E2
:10094000CE0101960E94060326960FB6F894DEBFEC
:100950000FBECDBFDF91CF911F910F9108951F93CF
:10096000CF93DF9360E080910D030E94C60210E0F8
:10097000D0E0C0E061E080910E030E94940260E04C
:1009800080910E030E94940280910D030E946802E0
:1009900099270C2E01C0880F0A94EAF7182B21968C
:1009A000C830D10539F7812FDF91CF911F9108957C
:1009B000FF920F931F93CF93DF9300D000D0CDB75A
:1009C000DEB78C0180910E0320910D0330E0409141
:1009D0000C0350E05A8349833C832B83282F30E05B
:1009E0003E832D8360E00E94940261E089810E9431
:1009F00094028BE090E00197F1F761E08FEB0E94A9
:100A000039040E94AF04982F929597705AE0F52E02
:100A10008F709F9D800D1124F80180830E94AF0488
:100A2000982F92959F708F709F9D800D1124F801D3
:100A300081830E94AF04282F30E087FF50C085FBE0
:100A4000222720F99CE0299F202D11248F70280F48
:100A5000F80122830E94AF04982F92959F702AE09C
:100A6000F22E8F709F9D800D1124F80183830E94C8
:100A7000AF04982F92959F708F709F9D800D1124C9
:100A8000F80184830E94AF04982F92959F708F7015
:100A90009F9D800D112490E0F801968385830E942C
:100AA000AF04982F92959F708F709F9D800D112499
:100AB00090E08053984FF80190878783CE0101968C
:100AC0000E940603C80126960FB6F894DEBF0FBE3B
:100AD000CDBFDF91CF911F910F91FF90089544E01A
:100AE000359527954A95E1F723702F9D202D1124E8
:100AF000ADCF1F920F920FB60F9211242F933F93F9
:100B00008F939F93AF93BF938091990290919A0294
:100B1000A0919B02B0919C0230918C0223E0230FA4
:100B20002D3758F50196A11DB11D20938C0280939D
:100B3000990290939A02A0939B02B0939C02809199
:100B4000880290918902A0918A02B0918B0201964D
:100B5000A11DB11D8093880290938902A0938A02FF
:100B6000B0938B02BF91AF919F918F913F912F9145
:100B70000F900FBE0F901F90189526E8230F029636
:100B8000A11DB11DD2CFCF93DF93CDB7DEB7C15733
:100B9000D1090FB6F894DEBF0FBECDBF789484B5EF
:100BA000826084BD84B5816084BD85B5826085BD69
:100BB00085B5816085BD80916E00816080936E00F7
:100BC00010928100809181008260809381008091E9
:100BD000810081608093810080918000816080939A
:100BE00080008091B10084608093B1008091B0005A
:100BF00081608093B0008091910082608093910029
:100C0000809191008160809391008091900081603B
:100C1000809390008091A10082608093A1008091D8
:100C2000A10081608093A1008091A00081608093E9
:100C3000A000809121018260809321018091210197
:100C40008160809321018091200181608093200147
:100C500080917A00846080937A0080917A0082602B
:100C600080937A0080917A00816080937A008091ED
:100C70007A00806880937A001092C10061E086E17A
:100C80000E94C60210E061E0812F0E94C60260E06F
:100C9000812F0E9494020EE1010F61E0802F0E94DB
:100CA000C60260E0802F0E9494021F5F1B3059F73C
:100CB00088E390E00E9400048CE090E00E94000431
:100CC00086E090E00E94000481E090E00E94000431
:100CD00088E390E00E94B2038CE090E00E94B203AF
:100CE00086E090E00E94B20381E090E00E94B203AF
:100CF00060E087E00E94720480910E0320910D0352
:100D000030E040910C0350E05A8349833C832B83AD
:100D1000282F30E03E832D8360E00E94940261E042
:100D200089810E9494028BE090E00197F1F761E0E5
:100D300081E80E9439040E94AF04182F9E012F5FA2
:100D40003F4F5901C9010E940603612F6F7780E070
:100D50000E9472044E0133E3830E911C412C512CEE
:100D600032014394CE018B599F4F0E94D804A9961B
:100D70008FADA9971F928F93AA968FADAA971F92B6
:100D80008F93AE968FADAE978F93AD968FADAD9797
:100D90008F9389E692E09F938F931F9212E31F93A4
:100DA0009F928F920E94130AA6968FADA6971F92CC
:100DB0008F93A7968FADA7971F928F93A8968FAD0D
:100DC000A8971F928F9388E792E09F938F931F922B
:100DD0001F93BF92AF920E94130A80E890E00E9496
:100DE000000484016E015DE3C50ED11C0FB6F894BA
:100DF000DEBF0FBECDBFF80181918F010E9461035C
:100E00000C151D05C1F780EC90E00E9400048501DF
:100E10006E01FBE0CF0ED11CF80181918F010E9481
:100E20006103C016D106C1F710E000E0AC96EEAD4C
:100E3000FFADAC973197E730F10588F48827EC5D7A
:100E4000F84F8F4F0C94F709AF072B0796079B07B6
:100E5000A007A507AA0785E4E82E82E0F82EF7018F
:100E6000E00FF11F80810E9461030F5F1F4F03306D
:100E70001105E1F68EE20E94610380E890E00E9495
:100E8000B20301E612E0F80181918F010E94100384
:100E9000F2E009361F07B9F780EC90E00E94B20338
:100EA00088E40E9410038FE60E94100385E70E94E9
:100EB000100382E70E9410038AE30E94100381E07E
:100EC000809309038FB7F8944091990250919A0248
:100ED00060919B0270919C028FBF8091F90290916A
:100EE000FA02A091FB02B091FC02481B590B6A0B5D
:100EF0007B0B8091050390910603B0E0A0E084177E
:100F00009507A607B70708F06CC110E080910303AE
:100F1000181750F5E091FF02F0910003E10FF11D69
:100F200062E080810E94C6021F5FF0CFBCE3EB2E1F
:100F3000B2E0FB2E94CFA3E3EA2EA2E0FA2E8FCFED
:100F4000FAE2EF2EF2E0FF2E8ACFE1E2EE2EE2E0AF
:100F5000FE2E85CF78E1E72E72E0F72E80CF6EE48B
:100F6000E62E62E0F62E7BCF312C809104033816FA
:100F700008F073C0032D10E0E0910103F09102032B
:100F8000E00FF11F61E080810E94C602E091010341
:100F9000F0910203E00FF11F60E080810E94940253
:100FA000D301C201032C04C0880F991FAA1FBB1FC5
:100FB0000A94D2F7E0969FAF8EAFE0979C01209500
:100FC0003095E2963FAF2EAFE297212C809103033C
:100FD000281660F5C22CD12CE091FF02F09100039D
:100FE000EC0DFD1D80810E946802F6013496892B6C
:100FF00081F4EE0FFF1FE356FD4F80819181E09653
:101000002EAD3FADE097822B932B91838083239469
:10101000DDCFEE0FFF1FE356FD4F80819181E296F9
:101020002EAD3FADE29782239323EFCFE0910103F2
:10103000F0910203E00FF11F61E080810E949402B1
:101040008091010390910203080F191F60E0F801DD
:1010500080810E94C602339488CF3DE9C32E32E0DE
:10106000D32E89ED92E08601F801278D30A1232B44
:1010700031F4148E2FEF3FEF368F258F11A20A5FC8
:101080001F4F8017910781F7312C80910303381689
:1010900008F059C0212C832D90E0880F991FFC0186
:1010A000EB55FD4FE096FFAFEEAFE09720910403C4
:1010B000221608F046C0E096EEADFFADE0976081E5
:1010C0007181022C02C0769567950A94E2F7329EF0
:1010D00090011124220D311DEDE9F2E080E0458DF3
:1010E000568D2417350709F405C18F5F36968A306F
:1010F000B1F760FF24C0EDE9F2E090E080E0448DBC
:10110000411118C0E091FD02F091FE02E20FF31FC1
:10111000408156E0589FF001599FF00D1124E3568D
:10112000FD4F448F368F258F10A2178E61E00E94ED
:10113000910105C0019636968A30910501F72394F6
:10114000B5CF3394A2CF80E0F60191A19111892F00
:10115000F6E0CF0ED11CC016D106B1F79FB7F894B8
:101160004091990250919A0260919B0270919C0269
:101170009FBF4093F9025093FA026093FB02709371
:10118000FC02882371F18091BE02882351F1809185
:10119000BC029091BD02019721F5D090B902D11007
:1011A00023C0C5010E94D8042B8180918F029091A9
:1011B00090022817190649F42A8180918D02909196
:1011C0008E0261E02817190609F060E086E10E94AE
:1011D000940280E090E0892B09F4C4CD0E940000C5
:1011E000C1CD10920903DDCF0091970210919802B2
:1011F0000A301105B4F601151105A1F58D2D0D2C40
:10120000000C990BC0979093960280939502C801A9
:101210008B539F4F0E94B2030F5F1F4F1093980292
:10122000009397028D2D0E9410030230110509F0E2
:10123000B8CF80E20E94100380E20E9410038DE488
:101240000E94100389E60E9410038EE60E9410039C
:101250008AE30E94100388E090E0909398028093C4
:1012600097029FCF0130110551F48D2D0D2C000CEC
:10127000990BC0979093940280939302C8CF083043
:10128000110551F48D2D0D2C000C990BC0979093E6
:10129000920280939102BBCF0930110509F0B7CFBC
:1012A00040919502509196022AE0249FC001259F0B
:1012B000900D11244091930250919402840F951F38
:1012C0009093900280938F024091910250919202EC
:1012D000249FC001259F900D11242D2D0D2C000C55
:1012E000330B20533109820F931F90938E0280930A
:1012F0008D028DCF61701BCF10929F021092A302BE
:101300001092A2021092A4028BE592E090939E02AA
:1013100080939D02E9EBF2E0108214821382158221
:10132000369682E0E53FF807B9F784E092E09093C3
:1013300000038093FF0280E092E090930203809389
:10134000010384E0809303038093040388E092E028
:101350009093FE028093FD028AE090E09093060352
:101360008093050384EF91E0909308038093070333
:1013700010920B0310920A031092F9021092FA02D3
:101380001092FB021092FC02109209038BE08093F2
:101390000C038CE080930D038DE080930E0360E0DE
:1013A0008BE00E94940261E08BE00E94C60260E044
:1013B0008CE00E94C60260E08DE00E94940261E031
:1013C0008DE00C94C60297FB072E16F4009407D00C
:1013D00077FD09D00E94FF0907FC05D03EF49095E7
:1013E00081959F4F0895709561957F4F0895EE0FF9
:1013F000FF1F881F8BBF0790F691E02D1994AA1B41
:10140000BB1B51E107C0AA1FBB1FA617B70710F0EF
:10141000A61BB70B881F991F5A95A9F78095909521
:10142000BC01CD0108950F931F93CF93DF93CDB7E8
:10143000DEB72E970FB6F894DEBF0FBECDBF0E8974
:101440001F89888D998D26E02C831A83098397FF45
:1014500002C080E090E801979E838D83AE01445ED8
:101460005F4F6A8D7B8DCE0101960E94500A4D819F
:101470005E8157FD0AC02F813885421753070CF44F
:101480009A01020F131FF80110822E960FB6F894DE
:10149000DEBF0FBECDBFDF91CF911F910F91089599
:1014A0002F923F924F925F926F927F928F929F9274
:1014B000AF92BF92CF92DF92EF92FF920F931F9362
:1014C000CF93DF9300D000D000D01F921F92CDB7F2
:1014D000DEB77C013B018A01FC0117821682838101
:1014E00081FFDDC1CE0101965C01F7019381F3011B
:1014F00093FD859193FF81913F01882309F453C1A6
:10150000853239F493FD859193FF81913F018532B6
:1015100029F4B70190E00E94680CE7CF912C212CB0
:10152000312CFFE1F31538F08B3211F190F4803259
:1015300009F1833229F137FC3CC020ED280F2A3015
:1015400050F536FE20C08AE0989E200D1124922E80
:1015500006C08D3291F0803371F7689430F8F30152
:1015600093FD859193FF81913F018111DACF21C0D5
:10157000689431F8689432F8F2CF689433F8EFCF7A
:10158000689434F8ECCFEAE02E9E200D1124222E30
:10159000689435F8E4CF8E3229F436FC04C168949F
:1015A00036F8DDCF8C3619F4689437F8D8CF883602
:1015B000B1F2982F9F7D95549330E0F08336A1F1DE
:1015C0008337C1F1833509F063C02801F2E04F0E83
:1015D000511CF801C080D180692D70E036FC02C03A
:1015E0006FEF7FEFC6010E94520C4C01689437F8F0
:1015F00082010AC00C5F1F4FFFE3F98388248394A4
:10160000912C6501E89437F833FE2DC0522C8114DB
:10161000910471F5552009F468CFB70180E290E09C
:101620000E94680C5A94F6CFF801808189830E5F7E
:101630001F4FE4CF2801F2E04F0E511CF801C0808B
:10164000D180692D70E036FC02C06FEF7FEFC601DC
:101650000E945D0C4C018201D5CFB70180E290E081
:101660000E94680C2A942814190409F0B0F7CECF10
:10167000F60137FC859137FE81916F01B70190E04B
:101680000E94680C51105A94F1E08F1A9108BFCF54
:10169000843619F0893609F077C0F80137FE6BC03F
:1016A00060817181828193810C5F1F4FF32DFF76E2
:1016B0003F2E97FF09C090958095709561957F4F5B
:1016C0008F4F9F4F689437F82AE030E0A5010E94C1
:1016D000980CC82ECA188C2C432C36FE0CC0E894EB
:1016E00040F8C91440F434FE05C032FC03C0F32DA9
:1016F000FE7E4F2E892C44FEAAC0FE01EC0DF11D8A
:101700008081803309F09CC0242D297E422E842DB7
:101710008870582E43FCAAC040FEA4C09C2C8214A2
:1017200018F42C0C922C981844FEA6C0B70180E344
:1017300090E00E94680C42FE09C088E790E041FEFC
:1017400002C088E590E0B7010E94680CC91408F453
:101750009FC0CA94D12C9FEFC91AD90ACA0CDB1CAE
:10176000F60182916F01B70190E00E94680CAC1401
:10177000BD04B1F74FCF60817181072E000C880B3B
:10178000990B0E5F1F4F92CFD32CE894D4F82AE028
:1017900030E08537E1F1232D297FD22E8F36A9F154
:1017A000F0F4883551F1F701868197812B960FB6B9
:1017B000F894DEBF0FBECDBFDF91CF911F910F9187
:1017C000FF90EF90DF90CF90BF90AF909F908F9061
:1017D0007F906F905F904F903F902F90089580374B
:1017E00049F0883701F7D4FE02C06894D2F820E1AE
:1017F00030E00DC06894D4F8F6CF34FE03C0822FD9
:101800008660D82E20E132E002C028E030E0F80106
:10181000D7FE0FC060817181828193810C5F1F4F61
:10182000A5010E94980CC82ECA183D2CE89437F8E0
:1018300052CF6081718190E080E00E5F1F4FF0CF4A
:1018400042FC02C0839463CF8394839460CF842D41
:10185000867809F45CCFF6CFB70180E290E00E9471
:10186000680C83948214C0F3512C5ECF522C58180C
:10187000821408F459CFF8CF842D867809F466CF06
:101880008BE241FE80E247FC8DE2B70190E05CCF45
:10189000B70180E390E00E94680C9A9457CF8FEFD5
:1018A0009FEF84CFFC010590615070400110D8F784
:1018B000809590958E0F9F1F0895FC016150704098
:1018C00001900110D8F7809590958E0F9F1F089575
:1018D0000F931F93CF93DF93182F092FEB018B8169
:1018E00081FD09C01FEF0FEF812F902FDF91CF9166
:1018F0001F910F91089582FF14C02E813F818C812A
:101900009D81281739073CF4E881F981CF010196C0
:101910009983888310838E819F8101969F838E8314
:10192000E3CFE885F985812F1995892BA1F3DACFCB
:10193000FA01AA27283051F1203181F1E8946F9300
:101940006E7F6E5F7F4F8F4F9F4FAF4FB1E03ED0A6
:10195000B4E03CD0670F781F891F9A1FA11D680F44
:10196000791F8A1F911DA11D6A0F711D811D911D77
:10197000A11D20D009F468943F912AE0269F1124EC
:101980003019305D3193DEF6CF010895462F477050
:10199000405D4193B3E00FD0C9F7F6CF462F4F70AB
:1019A000405D4A3318F0495D31FD4052419302D009
:1019B000A9F7EACFB4E0A6959795879577956795AF
:1019C000BA95C9F700976105710508959B01AC01AF
:1019D0000A2E06945795479537952795BA95C9F7D6
:1019E000620F731F841F951FA01D0895F894FFCFE9
:1019F00011100F0E151413123738392F3435362ABB
:101A00003132332D44303D2B5361747572646179EA
:101A1000204672696461792020205468757273646D
:101A20006179205765646E65736461795475657377
:101A300064617920204D6F6E646179202020537598
:101A40006E646179202020000000000203C2029130
:101A50000253657454696D653A253034642D253020
:101A600032642D2530326400253032643A2530321C
:081A7000643A253032640000E5
:020000040003F7
:10E000000D9489F10D94B2F10D94B2F10D94B2F129
:10E010000D94B2F10D94B2F10D94B2F10D94B2F1F0
:10E020000D94B2F10D94B2F10D94B2F10D94B2F1E0
:10E030000D94B2F10D94B2F10D94B2F10D94B2F1D0
:10E040000D94B2F10D94B2F10D94B2F10D94B2F1C0
:10E050000D94B2F10D94B2F10D94B2F10D94B2F1B0
:10E060000D94B2F10D94B2F10D94B2F10D94B2F1A0
:10E070000D94B2F10D94B2F10D94B2F10D94B2F190
:10E080000D94B2F10D94B2F10D94B2F10D94B2F180
:10E090000D94B2F10D94B2F10D94B2F10D94B2F170
:10E0A0000D94B2F10D94B2F10D94B2F10D94B2F160
:10E0B0000D94B2F10D94B2F10D94B2F10D94B2F150
:10E0C0000D94B2F10D94B2F10D94B2F10D94B2F140
:10E0D0000D94B2F10D94B2F10D94B2F10D94B2F130
:10E0E0000D94B2F141546D656761323536300041AF
:10E0F000726475696E6F206578706C6F72657220DE
:10E1000073746B3530305632206279204D4C530099
:10E11000426F6F746C6F616465723E004875683F52
:10E1200000436F6D70696C6564206F6E203D200048
:10E130004350552054797065202020203D20005FF9
:10E140005F4156525F415243485F5F3D2000415658
:10E1500052204C696243205665723D20004743437C
:10E160002056657273696F6E203D20004350552024
:10E1700049442020202020203D20004C6F7720663D
:10E18000757365202020203D20004869676820665F
:10E190007573652020203D200045787420667573D6
:10E1A00065202020203D20004C6F636B2066757336
:10E1B000652020203D20004D617220203720323024
:10E1C000313300312E362E3800342E332E350056A2
:10E1D00023202020414444522020206F7020636F70
:10E1E00064652020202020696E73747275637469E1
:10E1F0006F6E2061646472202020496E74657272B3
:10E20000757074006E6F20766563746F7200726A49
:10E210006D702020006A6D70200057686174207056
:10E220006F72743A00506F7274206E6F7420737541
:10E2300070706F72746564004D7573742062652030
:10E2400061206C6574746572002000577269747483
:10E25000696E672045450052656164696E672045B7
:10E26000450045452065727220636E743D00504F35
:10E27000525400303D5A65726F2061646472003FF1
:10E280003D43505520737461747300403D454550C3
:10E29000524F4D207465737400423D426C696E6B41
:10E2A000204C454400453D44756D70204545505215
:10E2B0004F4D00463D44756D7020464C415348001B
:10E2C000483D48656C70004C3D4C69737420492F83
:10E2D0004F20506F72747300513D51756974005234
:10E2E0003D44756D702052414D00563D73686F7707
:10E2F00020696E7465727275707420566563746FF0
:10E30000727300593D506F727420626C696E6B00BD
:10E310002A0011241FBECFEFD1E2DEBFCDBF01E046
:10E320000CBF12E0A0E0B2E0EEE1FDEF03E00BBFB6
:10E3300002C007900D92A030B107D9F712E0A0E01B
:10E34000B2E001C01D92AE30B107E1F70F9460F367
:10E350000D948DFE01E20EBF0FEF0DBF11241FBE05
:10E360000D9460F30D9400F020E030E040ED57E0B4
:10E3700005C0FA013197F1F72F5F3F4F2817390792
:10E38000C0F308959C01260F311DC901A0E0B0E043
:10E390002F5F3F4FABBFFC018791882361F08093D3
:10E3A000C6008091C00086FFFCCF8091C0008064D1
:10E3B0008093C000EACF08958DE08093C6008091DD
:10E3C000C00086FFFCCF8091C00080648093C000B5
:10E3D0008AE08093C6008091C00086FFFCCF8091C8
:10E3E000C00080648093C00008950F94C2F10F9420
:10E3F000DCF10895FC019081992359F09093C600B7
:10E400008091C00086FFFCCF8091C0008064809323
:10E41000C0003196992379F70895282F982F929567
:10E420009F70892F805D8A3308F0895F8093C600D2
:10E430008091C00086FFFCCF8091C00080648093F3
:10E44000C000822F8F70982F905D9A3308F0995FEB
:10E450009093C6008091C00086FFFCCF8091C000E1
:10E4600080648093C00008959C01FB01853691056E
:10E470001CF46330710594F0C90164E670E00F94F8
:10E480002EFE605D7F4F6093C6008091C00086FFC6
:10E49000FCCF8091C00080648093C0002B30310598
:10E4A00014F43297B4F0C90164E670E00F942EFEC4
:10E4B0006AE070E00F942EFE605D7F4F6093C600AF
:10E4C0008091C00086FFFCCF8091C0008064809363
:10E4D000C000C9016AE070E00F942EFEC0968093E0
:10E4E000C6008091C00086FFFCCF8091C000806490
:10E4F0008093C00008951F93182F8EE692EE60E07F
:10E500000F94C2F11093C6008091C00086FFFCCF2B
:10E510008091C00080648093C0000F94DCF11F9153
:10E5200008952F923F924F925F926F927F928F92B7
:10E530009F92AF92BF92CF92DF92EF92FF920F9392
:10E540001F93DF93CF93CDB7DEB762970FB6F894E2
:10E55000DEBF0FBECDBF382E622ECA01DB015C01CB
:10E560006D01772420E2222E2E010894411C511CBB
:10E570008BC081E0A81680E0B80681E0C80680E084
:10E58000D80628F0C601AA27BB270F940DF2BB2797
:10E59000AD2D9C2D8B2D0F940DF28A2D0F940DF225
:10E5A0002092C6008091C00086FFFCCF8091C00001
:10E5B00080648093C0009DE29093C6008091C0006B
:10E5C00086FFFCCF8091C00080648093C0002092C1
:10E5D000C6008091C00086FFFCCF8091C00080649F
:10E5E0008093C00019828601750188249924A1E0D6
:10E5F0003A1651F03A1620F0B2E03B1661F409C029
:10E600000BBFF701779007C0C7010F9477FE782EF4
:10E6100002C0F7017080872D0F940DF22092C60082
:10E620008091C00086FFFCCF8091C0008064809301
:10E63000C000872D8052F401EF70F0708F3520F408
:10E64000E40DF51D708204C0E40DF51D8EE280839B
:10E650000894E11CF11C011D111D0894811C911CE2
:10E6600090E18916910409F0C2CF80E190E0A0E02A
:10E67000B0E0A80EB91ECA1EDB1E198AC2010F9493
:10E68000FAF10F94DCF16A94662009F072CF629679
:10E690000FB6F894DEBF0FBECDBFCF91DF911F91B3
:10E6A0000F91FF90EF90DF90CF90BF90AF909F9031
:10E6B0008F907F906F905F904F903F902F90089534
:10E6C0002F923F924F925F926F927F928F929F9282
:10E6D000AF92BF92CF92DF92EF92FF920F931F9370
:10E6E000DF93CF93CDB7DEB7CD53D1400FB6F894BB
:10E6F000DEBF0FBECDBF01E20EBF0FEF0DBF94B75F
:10E70000F894A89514BE80916000886180936000A1
:10E7100010926000789493FF05C0E0910002F091A0
:10E7200001021995279A2F9A8091C00082608093E8
:10E73000C00080E18093C40088E18093C1000000A4
:10E74000EE24FF24870144E0A42EB12CCC24DD2448
:10E7500024C0C5010197F1F70894E11CF11C011DCB
:10E76000111D21E2E2162EE4F20620E0020720E06D
:10E77000120718F031E0C32ED12CC801B70127ECE5
:10E780003BE140E050E00F9441FE611571058105C9
:10E79000910519F485B1805885B98091C00087FD35
:10E7A00003C0C114D104A9F2A6014F5F5F4FC25E3E
:10E7B000DE4F59834883CE51D140C25EDE4F8881FF
:10E7C0009981CE51D140019711F00D9410FEC05D9A
:10E7D000DE4F19821882C053D14060E0C15DDE4F28
:10E7E0001882CF52D14088249924C35DDE4F19820C
:10E7F0001882CD52D140C05EDE4F188219821A8233
:10E800001B82C052D140CE5CDE4F188219821A8220
:10E810001B82C253D140EE24FF2487010BBFF701B6
:10E8200007911691C45CDE4F19830883CC53D14005
:10E830000D940BFEC25EDE4F28813981CE51D1404E
:10E840002130310509F52091C600C25EDE4F1982E4
:10E850001882CE51D14022C02F5F3F4F4F4F5F4FA4
:10E86000213082E138078AE7480780E0580780F0C6
:10E87000C45CDE4FE881F981CC53D140EF5FFF4F9C
:10E8800019F0EE27FF27099420E030E040E050E047
:10E890008091C00087FFE0CF2091C600C35DDE4FAE
:10E8A00048815981CD52D1404F5F5F4FC35DDE4FEC
:10E8B00059834883CD52D140213209F063C64A3092
:10E8C000510508F05FC60894811C911C53E0851621
:10E8D000910409F059C600E010E018C081E280936D
:10E8E000C6008091C00086FFFCCF8091C00080648C
:10E8F0008093C0002F5F3F4F2931310579F70F9486
:10E90000DCF10F5F1F4F0530110519F020E030E0FA
:10E91000E5CF10920A0210920B0210920C02109294
:10E920000D02109206021092070210920802109235
:10E930000902109202021092030210920402109235
:10E9400005028FEE90EE60E00F94F5F180E191EE1C
:10E9500060E00F94C2F18091C00087FFFCCF9091DE
:10E96000C600903608F09F759032B8F09093C600BC
:10E970008091C00086FFFCCF8091C00080648093AE
:10E98000C000A0E2A093C6008091C00086FFFCCF2B
:10E990008091C00080648093C000983409F4D7C18E
:10E9A0009934B8F4923409F459C1933458F490333B
:10E9B00019F1903308F4E3C59F33A1F1903409F0C5
:10E9C000DEC5BDC0953409F470C1963409F0D7C5D1
:10E9D00098C1923509F42BC2933538F49C3409F46C
:10E9E000F5C1913509F0CBC518C2963509F445C279
:10E9F000993509F0C4C567C483E792EE62E00F94CD
:10EA0000F5F110920602109207021092080210927D
:10EA1000090210920A0210920B0210920C0210923C
:10EA20000D0213C18FE792EE62E00F94F5F18FEEC5
:10EA300090EE60E00F94F5F181E291EE60E00F94CA
:10EA4000C2F187EB91EE60E00F94F5F180E391EE77
:10EA500060E00F94C2F184EE90EE60E00F94F5F167
:10EA60008FE391EE60E00F94C2F186E090E061E008
:10EA700070E00F9434F20F94DCF18DE591EE60E0DC
:10EA80000F94C2F189EC91EE60E00F94F5F18EE401
:10EA900091EE60E00F94C2F183EC91EE60E00F9490
:10EAA000F5F18CE691EE60E00F94C2F18EE10F94E7
:10EAB0000DF288E90F940DF281E00F940DF20F949E
:10EAC000DCF18BE791EE60E00F94C2F119E0E0E039
:10EAD000F0E010935700E4918E2F0F940DF20F94F5
:10EAE000DCF18AE891EE60E00F94C2F1E3E0F0E03F
:10EAF00010935700E4918E2F0F940DF20F94DCF1D8
:10EB000089E991EE60E00F94C2F1E2E0F0E0109349
:10EB10005700E4918E2F0F940DF20F94DCF188EAE8
:10EB200091EE60E00F94C2F1E1E0F0E01093570045
:10EB30001491812F0F940DF20F94DCF107CF8BE825
:10EB400092EE62E00F94F5F18BE492EE60E00F94A8
:10EB5000F5F10F94DCF100E010E019C0C8016F2D51
:10EB60000F947FFEFF2031F489E492EE60E00F9471
:10EB7000C2F10BC0F092C6008091C00086FFFCCFAE
:10EB80008091C00080648093C0000F5F1F4FC80158
:10EB900081519F41A0E0B0E0ABBFFC01F790BAE229
:10EBA000FB1621F0E2E000301E07C1F60F94DCF105
:10EBB0000F94DCF187E592EE60E00F94F5F10F948D
:10EBC000DCF1CC24DD2400E010E01EC0C8010F946D
:10EBD00077FEF82E882331F489E492EE60E00F94FA
:10EBE000C2F10BC08093C6008091C00086FFFCCFAD
:10EBF0008091C00080648093C000FE1419F00894D6
:10EC0000C11CD11C0F5F1F4FC80181519F41A0E063
:10EC1000B0E0ABBFFC01E790FAE2EF1621F022E092
:10EC20000030120799F60F94DCF10F94DCF182E6C4
:10EC300092EE60E00F94C2F1C60161E070E00F94C3
:10EC400034F20F94DCF10F94DCF110920202109276
:10EC50000302109204021092050278CE89E992EE26
:10EC600062E00F94F5F1279A2F9A16C02F9880E052
:10EC700090E0E0EDF7E03197F1F7019684369105E9
:10EC8000C1F72F9A80E090E0E0EDF7E03197F1F7DF
:10EC9000019684369105C1F78091C00087FFE6CFC9
:10ECA0008091C00087FFFCCF64C485EA92EE62E0E9
:10ECB0000F94F5F140910202509103026091040219
:10ECC0007091050281E020E10F9491F2809102029F
:10ECD00090910302A0910402B091050280509F4FD1
:10ECE000AF4FBF4F8093020290930302A0930402A0
:10ECF000B093050280509041A040B04008F426CE69
:10ED0000A4CF83EB92EE62E00F94F5F140910602FE
:10ED100050910702609108027091090280E020E1A1
:10ED20000F9491F28091060290910702A09108023F
:10ED3000B091090280509F4FAF4FBF4F80930602A2
:10ED400090930702A0930802B0930902FFCD80ECD4
:10ED500092EE62E00F94F5F183E792EE60E00F949B
:10ED6000F5F18FE792EE60E00F94F5F18BE892EE0B
:10ED700060E00F94F5F189E992EE60E00F94F5F10F
:10ED800085EA92EE60E00F94F5F183EB92EE60E09D
:10ED90000F94F5F180EC92EE60E00F94F5F187ECC2
:10EDA00092EE60E00F94F5F188ED92EE60E00F9442
:10EDB000F5F18FED92EE60E00F94F5F18AEE92EEB0
:10EDC00060E00F94F5F183E093EEBDCD87EC92EE19
:10EDD00062E00F94F5F181E40F947BF282E40F94EA
:10EDE0007BF283E40F947BF284E40F947BF285E45E
:10EDF0000F947BF286E40F947BF287E40F947BF20E
:10EE000088E40F947BF28AE40F947BF28BE40F94F6
:10EE10007BF28CE40F947BF299CD88ED92EE62E068
:10EE20000F94F5F1772473948824992409C48FED05
:10EE300092EE62E00F94F5F140910A0250910B02BC
:10EE400060910C0270910D0282E020E10F9491F22A
:10EE500080910A0290910B02A0910C02B0910D02D8
:10EE600080509F4FAF4FBF4F80930A0290930B0289
:10EE7000A0930C02B0930D0269CD8AEE92EE62E08F
:10EE80000F94F5F184EE90EE60E00F94F5F18FECC5
:10EE900091EE60E00F94F5F1662477244301CC5D98
:10EEA000DE4F19821882C452D140D401C301B695F5
:10EEB000A79597958795CA5DDE4F88839983AA8326
:10EEC000BB83C652D140CC5DDE4FA881B981C4520C
:10EED000D1401196CC5DDE4FB983A883C452D14096
:10EEE000CD0162E070E00F9434F2B0E2B093C6005E
:10EEF0008091C00086FFFCCF8091C0008064809329
:10EF0000C000EDE2E093C6008091C00086FFFCCF18
:10EF10008091C00080648093C000F0E2F093C6004E
:10EF20008091C00086FFFCCF8091C00080648093F8
:10EF3000C000CA5DDE4FE880F9800A811B81C6529D
:10EF4000D140BB27A12F902F8F2D0F940DF2CA5DBA
:10EF5000DE4F8881C652D1400F940DF2B0E2FB2EF5
:10EF6000F092C6008091C00086FFFCCF8091C00067
:10EF700080648093C0000DE30093C6008091C000C0
:10EF800086FFFCCF8091C00080648093C00010E2B7
:10EF90001093C6008091C00086FFFCCF8091C00016
:10EFA00080648093C0008BBEF3012791C65DDE4F65
:10EFB0002883CA52D140A22EBB24CC24DD2408943D
:10EFC000611C711C811C911C8BBEF3018791282E42
:10EFD0003324442455240894611C711C811C911C09
:10EFE0008BBEF3013791C55DDE4F3883CB52D140E4
:10EFF0000894611C711C811C911C8BBEF30147910C
:10F00000C45DDE4F4883CC52D140ADEFEA2EAFEF66
:10F01000FA2EAFEF0A2FAFEF1A2F6E0C7F1C801E57
:10F02000911E142D032DF22CEE24EA0CFB1C0C1D5A
:10F030001D1D0F940DF220E22093C6008091C000A8
:10F0400086FFFCCF8091C00080648093C000C65DC5
:10F05000DE4F8881CA52D1400F940DF230E23093D6
:10F06000C6008091C00086FFFCCF8091C000806404
:10F070008093C000C45DDE4F8881CC52D1400F9494
:10F080000DF240E24093C6008091C00086FFFCCFA5
:10F090008091C00080648093C000C55DDE4F888190
:10F0A000CB52D1400F940DF250E25093C6008091A4
:10F0B000C00086FFFCCF8091C00080648093C000B8
:10F0C0008FEFE8168FEFF80680E0080780E018075A
:10F0D00031F484E092EE60E00F94C2F1DFC0D80119
:10F0E000C7018070907CA070B0708050904CA040A0
:10F0F000B040D1F52FEF3FE340E050E0E222F322B1
:10F1000004231523CA5DDE4FA880B980CA80DB8046
:10F11000C652D140AE0CBF1CC01ED11EAA0CBB1CD7
:10F12000CC1CDD1C8EE092EE60E00F94C2F1BB2798
:10F13000A12F902F8F2D0F940DF28E2D0F940DF285
:10F1400030E23093C6008091C00086FFFCCF8091F2
:10F15000C00080648093C0004EE34093C60080915D
:10F16000C00086FFFCCF87C08EE09EEFA0E0B0E03D
:10F17000E822F9220A231B239CE0E91694E9F90608
:10F1800090E0090790E0190709F088C0C45DDE4FE0
:10F19000A881CC52D140EA2EFF2400E010E0102FCD
:10F1A0000F2DFE2CEE24C55DDE4FB881CB52D14031
:10F1B000EB0EF11C011D111DD601C501817090706F
:10F1C000A070B070DC0199278827E80EF91E0A1F8D
:10F1D0001B1F20EF30E040E050E0A222B322C42207
:10F1E000D52241E1AA0CBB1CCC1CDD1C4A95D1F7F1
:10F1F000EA0CFB1C0C1D1D1D81E090E0A0E0B0E0BE
:10F20000282239224A225B2235E1220C331C441C7D
:10F21000551C3A95D1F7E20CF31C041D151D57013E
:10F220006801AA0CBB1CCC1CDD1C85E192EE60E0E1
:10F230000F94C2F1C801AA27BB270F940DF2BB2778
:10F24000A12F902F8F2D0F940DF28E2D0F940DF274
:10F2500090E29093C6008091C00086FFFCCF809121
:10F26000C00080648093C000AEE3A093C60080918C
:10F27000C00086FFFCCF8091C00080648093C000F6
:10F28000C601AA27BB270F940DF2BB27AD2D9C2DDD
:10F290008B2D0F940DF28A2D0F940DF20F94DCF14B
:10F2A000CC5DDE4FE881F981C452D140F99709F471
:10F2B0004DCBF4E0EF2EF12C012D112D6E0C7F1CA7
:10F2C000801E911EF2CD83E093EE62E00F94F5F183
:10F2D0008AE192EE60E00F94C2F18091C00087FF56
:10F2E000FCCF1091C6001F751093C6008091C0001E
:10F2F00086FFFCCF8091C00080648093C0000F9493
:10F30000DCF1812F81548A3108F036C1163409F4BA
:10F3100095C0173490F4133409F44EC0143430F40B
:10F320001134F1F0123409F01DC130C0143409F465
:10F3300059C0153409F016C16BC01A3409F4C4C0A1
:10F340001B3438F4173409F48FC0183409F00AC19B
:10F35000A1C01B3409F4D2C01C3409F003C1E8C0B9
:10F360008FEF81B90DC082B1809582B980E090E0C5
:10F37000E0EDF7E03197F1F70196883C9105C1F790
:10F380008091C00087FFEFCF12B8EFC08FEF84B934
:10F390000DC085B1809585B980E090E0E0EDF7E0A3
:10F3A0003197F1F70196883C9105C1F78091C00033
:10F3B00087FFEFCF15B8D9C08FEF87B90DC088B1DF
:10F3C000809588B980E090E0E0EDF7E03197F1F7C3
:10F3D0000196883C9105C1F78091C00087FFEFCF6F
:10F3E00018B8C3C08FEF8AB90DC08BB180958BB9A7
:10F3F00080E090E0E0EDF7E03197F1F70196883C8E
:10F400009105C1F78091C00087FFEFCF1BB8ADC059
:10F410008FEF8DB90DC08EB180958EB980E090E0F0
:10F42000E0EDF7E03197F1F70196883C9105C1F7DF
:10F430008091C00087FFEFCF1EB897C08FEF80BBD1
:10F440000DC081B3809581BB80E090E0E0EDF7E0F6
:10F450003197F1F70196883C9105C1F78091C00082
:10F4600087FFEFCF11BA81C08FEF83BB0DC084B38C
:10F47000809584BB80E090E0E0EDF7E03197F1F714
:10F480000196883C9105C1F78091C00087FFEFCFBE
:10F4900014BA6BC08FEF809301010FC080910201FD
:10F4A00080958093020180E090E0E0EDF7E03197F5
:10F4B000F1F70196883C9105C1F78091C00087FF64
:10F4C000EDCF1092020151C08FEF809304010FC065
:10F4D0008091050180958093050180E090E0E0ED4A
:10F4E000F7E03197F1F70196883C9105C1F78091DB
:10F4F000C00087FFEDCF1092050137C08FEF8093DA
:10F5000007010FC08091080180958093080180E079
:10F5100090E0E0EDF7E03197F1F70196883C910536
:10F52000C1F78091C00087FFEDCF109208011DC088
:10F530008FEF80930A010FC080910B01809580931B
:10F540000B0180E090E0E0EDF7E03197F1F70196F4
:10F55000883C9105C1F78091C00087FFEDCF1092E4
:10F560000B0103C085E292EEEEC98091C00087FFD7
:10F57000FCCF8091C600EAC988E392EEE4C98CE131
:10F5800091EEE1C988249924933011F1943028F444
:10F59000913089F09230B8F408C0953061F195301F
:10F5A000F0F0963009F048C043C02B3109F042C951
:10F5B00091E06BE13FC96227C15DDE4F2883CF52E6
:10F5C000D14092E037C9B22FA0E0622793E032C960
:10F5D000822F90E0A82BB92B622794E02BC92E3004
:10F5E00009F039C3622795E0C05DDE4F19821882A9
:10F5F000C053D1401FC9E1E0F0E0EC0FFD1FC05D3A
:10F60000DE4F08811981C053D140E00FF11F2083E4
:10F610000F5F1F4FC05DDE4F19830883C053D14079
:10F6200062270A171B0709F005C9D80196E002C92D
:10F63000261709F010C303C0973009F0FBC87724E0
:10F640009981933109F412C19431C8F4963009F4C8
:10F65000D8C0973050F4923009F406C1933009F4C1
:10F660006DC0913009F059C253C0913109F477C08F
:10F67000923108F0BBC0903109F04FC2F5C098310B
:10F6800009F487C0993150F4953109F4EFC09531F0
:10F6900008F4C6C1963109F040C2C2C19A3109F4DA
:10F6A0006CC09A3108F491C09B3109F45BC09D3164
:10F6B00009F033C29D81903359F48F81882311F46E
:10F6C0009EE11CC0813011F091E018C098E916C08D
:10F6D000892F807591F0903539F4E0E0F0E089E011
:10F6E0008093570094910AC0983539F4E3E0F0E034
:10F6F00089E080935700949101C090E01A821B82A8
:10F700008D818C831D829E831F8227E030E009C299
:10F710001A8288E08B8381E48C8386E58D8382E581
:10F720008E8389E48F8383E5888780E589878FE5E9
:10F730008A8782E38B872BE030E0F3C18A818139AD
:10F7400041F0823941F0803911F48FE005C080E04A
:10F7500003C082E001C08AE01A828B8344C0772410
:10F76000739482C08D81882311F48EE12CC0813086
:10F7700011F081E028C088E926C01A82E1E0F0E0BB
:10F7800089E08093570084918B831C8224E030E0D1
:10F79000C8C18B81803589F48C81883039F4E2E0EE
:10F7A000F0E089E08093570084910DC0E0E0F0E044
:10F7B00089E080935700849106C0E3E0F0E089E09F
:10F7C0008093570084911A82DFCF8D81836C99E0FA
:10F7D000E1E0F0E0082E90935700E89507B600FCB2
:10F7E000FDCF1A821B8223E030E09BC180EC8A832C
:10F7F000CE5CDE4F188219821A821B82C253D1401E
:10F800008EC18A8190E0A0E0B0E0582F44273327D2
:10F8100022278B8190E0A0E0B0E0DC0199278827C7
:10F82000282B392B4A2B5B2B8D8190E0A0E0B0E098
:10F83000282B392B4A2B5B2B8C8190E0A0E0B0E089
:10F84000BA2FA92F982F8827282B392B4A2B5B2BCF
:10F85000220F331F441F551FC05EDE4F288339839C
:10F860004A835B83C052D1401A8259C13A81C95C34
:10F87000DE4F3883C753D140CA5CDE4F1882C6536F
:10F88000D1408B81C82EDD24CA5CDE4F488159816E
:10F89000C653D140C42AD52A933109F082C0CE5C28
:10F8A000DE4F88819981AA81BB81C253D1408050AB
:10F8B000904CA340B04030F583E0CE5CDE4FE88052
:10F8C000F9800A811B81C253D140F70100935B008C
:10F8D00080935700E89507B600FCFDCFCE5CDE4F65
:10F8E000088119812A813B81C253D14000501F4FAA
:10F8F0002F4F3F4FCE5CDE4F088319832A833B8313
:10F90000C253D140C05EDE4F488159816A817B81FC
:10F91000C052D140DE011B9631E08C9111962C91A2
:10F9200011971296C75CDE4F2883C953D140C85C3B
:10F93000DE4F1882C853D14090E0C85CDE4FE881AA
:10F94000F981C853D1408E2B9F2B0C01FA01609393
:10F950005B0030935700E89511244E5F5F4F6F4F67
:10F960007F4F0EEFE02E0FEFF02ECE0CDF1CC114F8
:10F97000D10499F685E0C05EDE4F088119812A81A5
:10F980003B81C052D140F80120935B008093570027
:10F99000E89507B600FCFDCF81E180935700E8951C
:10F9A00035C0C05EDE4F88819981AA81BB81C0527B
:10F9B000D140B695A795979587957C018601ABE0D8
:10F9C000AA2EB12CAC0EBD1E0BC0D5016D915D01F0
:10F9D000C7010F947FFE0894E11CF11C01501040F8
:10F9E0000115110591F7A60160E070E0440F551F65
:10F9F000661F771FC05EDE4FE880F9800A811B8199
:10FA0000C052D1404E0D5F1D601F711F1A82C05E33
:10FA1000DE4F488359836A837B83C052D1407FC0C5
:10FA2000FA80C55CDE4FF882CB53D140C65CDE4F16
:10FA30001882CA53D1408B81C82EDD24C65CDE4FAC
:10FA400008811981CA53D140C02AD12A1A828981DA
:10FA5000BE016D5F7F4F843121F59601C05EDE4FA0
:10FA6000E880F9800A811B81C052D1400BBFF701A9
:10FA700087919691DB018C9311969C936E5F7F4FDB
:10FA8000D801C7010296A11DB11DC05EDE4F88835B
:10FA90009983AA83BB83C052D14022503040F1F6F3
:10FAA00036C0C05EDE4F288139814A815B81C052F9
:10FAB000D1400894C108D108760100E010E0089414
:10FAC000C11CD11C0894E11CF11C011D111DE20E8A
:10FAD000F31E041F151F21BDBB27A52F942F832FB5
:10FAE00082BD2F5F3F4F4F4F5F4FF89A80B5DB01CC
:10FAF0008D93BD012E153F054007510761F7C05E8C
:10FB0000DE4F288339834A835B83C052D1409601FC
:10FB10002D5F3F4FFB01108204C080EC8A8322E0FE
:10FB200030E08BE18093C6008091C00086FFFCCF5F
:10FB30008091C00080648093C000C15DDE4FF88179
:10FB4000CF52D140F093C6008091C00086FFFCCF19
:10FB50008091C00080648093C000432F3093C60022
:10FB60008091C00086FFFCCF8091C00080648093AC
:10FB7000C000922F2093C6008091C00086FFFCCF6A
:10FB80008091C00080648093C0008EE08093C600A6
:10FB90008091C00086FFFCCF8091C000806480937C
:10FBA000C00065E1C15DDE4FE880CF52D1406E25D7
:10FBB00069276427FE01319610C090819093C6009A
:10FBC0008091C00086FFFCCF31968091C000806498
:10FBD0008093C0006927215030402115310569F715
:10FBE0006093C6008091C00086FFFCCF8091C0006A
:10FBF00080648093C00085B1805885B9772081F4F6
:10FC0000C15DDE4F0881CF52D1400F5FC15DDE4F35
:10FC10000883CF52D14090E0A0E0B0E00D941AF4F8
:10FC200027982F9880E090E020ED37E0F901319798
:10FC3000F1F7019684369105C9F700008091C00064
:10FC40008D7F8093C00081E180935700E895EE2777
:10FC5000FF270994FFCF90E00D941AF497FB092E2B
:10FC600007260AD077FD04D02ED006D000201AF443
:10FC7000709561957F4F0895F6F7909581959F4F08
:10FC80000895A1E21A2EAA1BBB1BFD010DC0AA1FDD
:10FC9000BB1FEE1FFF1FA217B307E407F50720F0F5
:10FCA000A21BB30BE40BF50B661F771F881F991F70
:10FCB0001A9469F760957095809590959B01AC01B9
:10FCC000BD01CF010895AA1BBB1B51E107C0AA1FAC
:10FCD000BB1FA617B70710F0A61BB70B881F991FED
:10FCE0005A95A9F780959095BC01CD010895F99991
:10FCF000FECF92BD81BDF89A992780B50895262F31
:10FD0000F999FECF1FBA92BD81BD20BD0FB6F89400
:0EFD1000FA9AF99A0FBE01960895F894FFCF63
:00000001FF
