:100000000C943B010C946C010C946C010C946C01ED
:100010000C946C010C946C010C946C010C946C01AC
:100020000C946C010C946C010C946C010C946C019C
:100030000C946C010C946C010C946C010C946C018C
:100040000C946C010C946C010C946C010C946C017C
:100050000C946C010C946C010C946C010C9479055B
:100060000C946C010C946C010C946C010C946C015C
:100070000C946C010C946C010C946C010C946C014C
:100080000C946C010C946C010C946C010C946C013C
:100090000C946C010C946C010C946C010C946C012C
:1000A0000C946C010C946C010C946C010C946C011C
:1000B0000C946C010C946C010C946C010C946C010C
:1000C0000C946C010C946C010C946C010C946C01FC
:1000D0000C946C010C946C010C946C010C946C01EC
:1000E0000C946C010C947C090C9429020C9425024C
:1000F0000C9402030C9431020C945A020C943402B6
:100100000C943A020C94AA070C944C020C945F02D3
:100110000C9456020C942B070C94A0070C945202DA
:100120000C942D020C94AF070C943E020C941F0209
:100130000C94C2020C9444020C9496070C9448024E
:100140000C9491020C9460020C949B070C94A507EC
:100150000C94640200002100240027002A002D00D6
:100160003000330001010000040107010A01000012
:100170002200250028002B002E003100340002014F
:100180000000050108010B010000200023002600EB
:1001900029002C002F00320000010000030106019D
:1001A00009010505050507050808080802020202FD
:1001B0000A0A080804040404010101010101010103
:1001C0000303030303030303040707070C0C0C0CCE
:1001D0000C0C0C0C020202020606060606060606B7
:1001E0000B0B0B0B0B0B0B0B010210202008081044
:1001F0002040102040800201020108040201010297
:10020000040810204080804020100804020180046F
:1002100002018040201008040201080402010102CA
:1002200004081020408001020408102040800000D3
:100230000A0B02090C0D0E08070304010000000060
:1002400000000000000000000000000000000000AE
:10025000000000000000000000001211100000006B
:10026000000000000000000000000000000000008E
:10027000000000007C0911241FBECFEFD1E2DEBFD9
:10028000CDBF00E00CBF12E0A0E0B2E0E0EFF9E18A
:1002900000E00BBF02C007900D92A838B107D9F754
:1002A00023E0A8E8B2E001C01D92AF30B207E1F749
:1002B00011E0CBE3D1E000E006C021970109802FD7
:1002C000FE010E94F709CA33D10780E00807A9F7A9
:1002D0000E94C3050C94F60C0C94000096E0899FD4
:1002E000D0011124A356BD4F90967C936E935F97D7
:1002F00091E091969C939197E0910A03F0910B0302
:1003000090910903992339F0309751F0811108C079
:100310008091B9021994309719F05C968C91FACFBC
:100320000895CF92DF92EF92FF920F931F9396E082
:10033000899FF0011124E356FD4F11A2278D30A1B2
:100340002130310551F178F02230310509F451C0E6
:100350002330310509F452C01F910F91FF90EF90A7
:10036000DF90CF9008956623B9F361E070E00E94BA
:100370006E012FB7F8948091990290919A02A09102
:100380009B02B0919C022FBF8093F5029093F602DE
:10039000A093F702B093F802DFCF9FB7F894C09014
:1003A0009902D0909A02E0909B02F0909C029FBF2D
:1003B0000091F5021091F6022091F7023091F802B7
:1003C000C01AD10AE20AF30A009107031091080348
:1003D00030E020E00C151D052E053F0550F462E0CD
:1003E00070E01F910F91FF90EF90DF90CF900C94F1
:1003F0006E016111B1CF63E070E0F3CF70E060E0B7
:10040000F0CF8150823108F05AC0E82FF0E0882701
:10041000E35FFD4F8F4F0C94F7092D0231021F024D
:10042000250229025F0234023A023E0244024802D7
:100430004C02520256025F025A026002640280912C
:1004400080008F77809380000895809180008F7D59
:10045000F9CF80918000877FF5CF84B58F7784BDF9
:10046000089584B58F7DFBCF8091B0008F77809306
:10047000B00008958091B0008F7DF9CF80919000F9
:100480008F77809390000895809190008F7DF9CFB1
:1004900080919000877FF5CF8091A0008F77809327
:1004A000A00008958091A0008F7DF9CF8091A000D9
:1004B000877FF5CF809120018F7780932001089569
:1004C000809120018F7DF9CF80912001877FF5CF2A
:1004D000CF93DF93282F30E0F901E25DFD4F849147
:1004E000F901E851FE4FD491F901EE55FE4FC49148
:1004F000CC23A1F081110E940102EC2FF0E0EE0F5D
:10050000FF1FE857FE4FA591B491EC91ED2381E0D8
:1005100090E009F480E0DF91CF91089580E090E0D1
:10052000FACF862F0C9468021F93CF93DF93282F66
:1005300030E0F901E25DFD4F8491F901E851FE4F91
:10054000D491F901EE55FE4FC491CC23A9F0162F9A
:1005500081110E940102EC2FF0E0EE0FFF1FE25923
:10056000FE4FA591B4918FB7F894EC91111108C08A
:10057000D095DE23DC938FBFDF91CF911F9108953B
:10058000DE2BF8CF862F642F0C949402CF93DF9349
:1005900090E0FC01E851FE4F24918E559E4FFC01E6
:1005A00084918823C9F090E0880F991FFC01EC5AD0
:1005B000FE4FA591B491FC01E259FE4FC591D49133
:1005C00061110DC09FB7F8948C91209582238C9374
:1005D0008881282328839FBFDF91CF9108956230BF
:1005E00051F49FB7F8943C91822F809583238C938C
:1005F000E8812E2BEFCF8FB7F894EC912E2B2C9314
:100600008FBFEACF862F642F0C94C60260E0FC01F6
:1006100080810E9494028BE090E00197F1F70895A9
:10062000CF92DF92FF920F931F93CF93DF93C82F48
:1006300061E088E20E94940260E087E20E949402F6
:1006400060E086E20E949402DEE161E08D2F0E946C
:10065000C60260E08D2F0E949402DF5FD632A9F7B8
:100660000C2E000CDD0B2EE192E0C92ED12CFF24C4
:10067000F394F20E8E010F5F1F4F0330110570F0DF
:10068000CE01B6010E94E309682F822F0E949402D6
:10069000D7FDE801D595C7952F2DE9CF6C2F822F77
:1006A0000E94940261E086E20E94940260E086E289
:1006B000DF91CF911F910F91FF90DF90CF900C941D
:1006C0009402CF92DF92FF920F931F93CF93DF9309
:1006D000C82F61E08AE00E94940260E089E00E94F5
:1006E000940260E088E00E949402D0E061E08D2FE7
:1006F0000E94C60260E08D2F0E949402DF5FD83016
:10070000A9F70C2E000CDD0B20E092E0C92ED12CB5
:10071000FF24F394F20E8E010F5F1F4F033011057B
:1007200070F0CE01B6010E94E309682F822F0E946B
:100730009402D7FDE801D595C7952F2DE9CF6C2FF1
:10074000822F0E94940261E088E00E94940260E09F
:1007500088E0DF91CF911F910F91FF90DF90CF90B4
:100760000C949402CF92DF92FF920F931F93CF933A
:10077000DF93EC0160E088E20E94940260E087E28F
:100780000E94940260E086E20E9494021EE161E011
:10079000812F0E94C60260E0812F0E9494021F5F99
:1007A0001632A9F72EE192E0C92ED12CFF24F39442
:1007B000F20E8E010F5F1F4F0330110570F0CE0156
:1007C000B6010E94E309682F822F0E949402D7FD90
:1007D000E801D595C7952F2DE9CF6C2F822F0E9468
:1007E000940261E086E20E94940260E086E2DF917A
:1007F000CF911F910F91FF90DF90CF900C949402B6
:100800000F931F93CF938C0160E08AE00E949402C3
:1008100060E089E00E94940260E088E00E94940217
:10082000C0E061E08C2F0E94C60260E08C2F0E9425
:100830009402CF5FC830A9F780E0C1E0C80F013053
:10084000110549F0B801617077270E94940215954F
:1008500007958C2FF2CF61E00E94940261E088E05E
:100860000E94940260E088E0CF911F910F910C9458
:100870009402FF920F931F93CF93DF93082FF62ECE
:1008800061E080910D030E94C602D0E0C0E010E05C
:10089000B8010C2E02C0759567950A94E2F7617055
:1008A00080910D030E94940261E080910E030E94EA
:1008B000940260E0FF2089F0C730D10571F4809187
:1008C0000D030E94C6022196C830D10509F7DF91B9
:1008D000CF911F910F91FF90089580910E030E9478
:1008E0009402F1CF0F931F93CF93DF9300D000D0EA
:1008F000CDB7DEB7182F062FECE0F3E0828121811F
:1009000030E0408150E05A8349833C832B83282F79
:1009100030E03E832D8360E00E94940261E0898193
:100920000E9494028BE090E00197F1F7812F880FED
:1009300060E080680E94390460E0802F0E943904E2
:10094000CE0101960E94060326960FB6F894DEBFEC
:100950000FBECDBFDF91CF911F910F9108951F93CF
:10096000CF93DF9360E080910D030E94C60210E0F8
:10097000D0E0C0E061E080910E030E94940260E04C
:1009800080910E030E94940280910D030E946802E0
:1009900099270C2E01C0880F0A94EAF7182B21968C
:1009A000C830D10539F7812FDF91CF911F9108957C
:1009B000FF920F931F93CF93DF9300D000D0CDB75A
:1009C000DEB78C0180910E0320910D0330E0409141
:1009D0000C0350E05A8349833C832B83282F30E05B
:1009E0003E832D8360E00E94940261E089810E9431
:1009F00094028BE090E00197F1F761E08FEB0E94A9
:100A000039040E94AF04982F929597705AE0F52E02
:100A10008F709F9D800D1124F80180830E94AF0488
:100A2000982F92959F708F709F9D800D1124F801D3
:100A300081830E94AF04282F30E087FF50C085FBE0
:100A4000222720F99CE0299F202D11248F70280F48
:100A5000F80122830E94AF04982F92959F702AE09C
:100A6000F22E8F709F9D800D1124F80183830E94C8
:100A7000AF04982F92959F708F709F9D800D1124C9
:100A8000F80184830E94AF04982F92959F708F7015
:100A90009F9D800D112490E0F801968385830E942C
:100AA000AF04982F92959F708F709F9D800D112499
:100AB00090E08053984FF80190878783CE0101968C
:100AC0000E940603C80126960FB6F894DEBF0FBE3B
:100AD000CDBFDF91CF911F910F91FF90089544E01A
:100AE000359527954A95E1F723702F9D202D1124E8
:100AF000ADCF1F920F920FB60F9211242F933F93F9
:100B00008F939F93AF93BF938091990290919A0294
:100B1000A0919B02B0919C0230918C0223E0230FA4
:100B20002D3758F50196A11DB11D20938C0280939D
:100B3000990290939A02A0939B02B0939C02809199
:100B4000880290918902A0918A02B0918B0201964D
:100B5000A11DB11D8093880290938902A0938A02FF
:100B6000B0938B02BF91AF919F918F913F912F9145
:100B70000F900FBE0F901F90189526E8230F029636
:100B8000A11DB11DD2CFCF93DF93CDB7DEB7C15733
:100B9000D1090FB6F894DEBF0FBECDBF789484B5EF
:100BA000826084BD84B5816084BD85B5826085BD69
:100BB00085B5816085BD80916E00816080936E00F7
:100BC00010928100809181008260809381008091E9
:100BD000810081608093810080918000816080939A
:100BE00080008091B10084608093B1008091B0005A
:100BF00081608093B0008091910082608093910029
:100C0000809191008160809391008091900081603B
:100C1000809390008091A10082608093A1008091D8
:100C2000A10081608093A1008091A00081608093E9
:100C3000A000809121018260809321018091210197
:100C40008160809321018091200181608093200147
:100C500080917A00846080937A0080917A0082602B
:100C600080937A0080917A00816080937A008091ED
:100C70007A00806880937A001092C10061E086E17A
:100C80000E94C60210E061E0812F0E94C60260E06F
:100C9000812F0E9494020EE1010F61E0802F0E94DB
:100CA000C60260E0802F0E9494021F5F1B3059F73C
:100CB00088E390E00E9400048CE090E00E94000431
:100CC00086E090E00E94000481E090E00E94000431
:100CD00088E390E00E94B2038CE090E00E94B203AF
:100CE00086E090E00E94B20381E090E00E94B203AF
:100CF00060E087E00E94720480910E0320910D0352
:100D000030E040910C0350E05A8349833C832B83AD
:100D1000282F30E03E832D8360E00E94940261E042
:100D200089810E9494028BE090E00197F1F761E0E5
:100D300081E80E9439040E94AF04182F9E012F5FA2
:100D40003F4F5901C9010E940603612F6F7780E070
:100D50000E9472044E0133E3830E911C412C512CEE
:100D600032014394CE018B599F4F0E94D804A9961B
:100D70008FADA9971F928F93AA968FADAA971F92B6
:100D80008F93AE968FADAE978F93AD968FADAD9797
:100D90008F9389E692E09F938F931F9212E31F93A4
:100DA0009F928F920E94130AA6968FADA6971F92CC
:100DB0008F93A7968FADA7971F928F93A8968FAD0D
:100DC000A8971F928F9388E792E09F938F931F922B
:100DD0001F93BF92AF920E94130A80E890E00E9496
:100DE000000484016E015DE3C50ED11C0FB6F894BA
:100DF000DEBF0FBECDBFF80181918F010E9461035C
:100E00000C151D05C1F780EC90E00E9400048501DF
:100E10006E01FBE0CF0ED11CF80181918F010E9481
:100E20006103C016D106C1F710E000E0AC96EEAD4C
:100E3000FFADAC973197E730F10588F48827EC5D7A
:100E4000F84F8F4F0C94F709AF072B0796079B07B6
:100E5000A007A507AA0785E4E82E82E0F82EF7018F
:100E6000E00FF11F80810E9461030F5F1F4F03306D
:100E70001105E1F68EE20E94610380E890E00E9495
:100E8000B20301E612E0F80181918F010E94100384
:100E9000F2E009361F07B9F780EC90E00E94B20338
:100EA00088E40E9410038FE60E94100385E70E94E9
:100EB000100382E70E9410038AE30E94100381E07E
:100EC000809309038FB7F8944091990250919A0248
:100ED00060919B0270919C028FBF8091F90290916A
:100EE000FA02A091FB02B091FC02481B590B6A0B5D
:100EF0007B0B8091050390910603B0E0A0E084177E
:100F00009507A607B70708F06CC110E080910303AE
:100F1000181750F5E091FF02F0910003E10FF11D69
:100F200062E080810E94C6021F5FF0CFBCE3EB2E1F
:100F3000B2E0FB2E94CFA3E3EA2EA2E0FA2E8FCFED
:100F4000FAE2EF2EF2E0FF2E8ACFE1E2EE2EE2E0AF
:100F5000FE2E85CF78E1E72E72E0F72E80CF6EE48B
:100F6000E62E62E0F62E7BCF312C809104033816FA
:100F700008F073C0032D10E0E0910103F09102032B
:100F8000E00FF11F61E080810E94C602E091010341
:100F9000F0910203E00FF11F60E080810E94940253
:100FA000D301C201032C04C0880F991FAA1FBB1FC5
:100FB0000A94D2F7E0969FAF8EAFE0979C01209500
:100FC0003095E2963FAF2EAFE297212C809103033C
:100FD000281660F5C22CD12CE091FF02F09100039D
:100FE000EC0DFD1D80810E946802F6013496892B6C
:100FF00081F4EE0FFF1FE356FD4F80819181E09653
:101000002EAD3FADE097822B932B91838083239469
:10101000DDCFEE0FFF1FE356FD4F80819181E296F9
:101020002EAD3FADE29782239323EFCFE0910103F2
:10103000F0910203E00FF11F61E080810E949402B1
:101040008091010390910203080F191F60E0F801DD
:1010500080810E94C602339488CF3DE9C32E32E0DE
:10106000D32E89ED92E08601F801278D30A1232B44
:1010700031F4148E2FEF3FEF368F258F11A20A5FC8
:101080001F4F8017910781F7312C80910303381689
:1010900008F059C0212C832D90E0880F991FFC0186
:1010A000EB55FD4FE096FFAFEEAFE09720910403C4
:1010B000221608F046C0E096EEADFFADE0976081E5
:1010C0007181022C02C0769567950A94E2F7329EF0
:1010D00090011124220D311DEDE9F2E080E0458DF3
:1010E000568D2417350709F405C18F5F36968A306F
:1010F000B1F760FF24C0EDE9F2E090E080E0448DBC
:10110000411118C0E091FD02F091FE02E20FF31FC1
:10111000408156E0589FF001599FF00D1124E3568D
:10112000FD4F448F368F258F10A2178E61E00E94ED
:10113000910105C0019636968A30910501F72394F6
:10114000B5CF3394A2CF80E0F60191A19111892F00
:10115000F6E0CF0ED11CC016D106B1F79FB7F894B8
:101160004091990250919A0260919B0270919C0269
:101170009FBF4093F9025093FA026093FB02709371
:10118000FC02882371F18091BE02882351F1809185
:10119000BC029091BD02019721F5D090B902D11007
:1011A00023C0C5010E94D8042B8180918F029091A9
:1011B00090022817190649F42A8180918D02909196
:1011C0008E0261E02817190609F060E086E10E94AE
:1011D000940280E090E0892B09F4C4CD0E940000C5
:1011E000C1CD10920903DDCF0091970210919802B2
:1011F0000A301105B4F601151105A1F58D2D0D2C40
:10120000000C990BC0979093960280939502C801A9
:101210008B539F4F0E94B2030F5F1F4F1093980292
:10122000009397028D2D0E9410030230110509F0E2
:10123000B8CF80E20E94100380E20E9410038DE488
:101240000E94100389E60E9410038EE60E9410039C
:101250008AE30E94100388E090E0909398028093C4
:1012600097029FCF0130110551F48D2D0D2C000CEC
:10127000990BC0979093940280939302C8CF083043
:10128000110551F48D2D0D2C000C990BC0979093E6
:10129000920280939102BBCF0930110509F0B7CFBC
:1012A00040919502509196022AE0249FC001259F0B
:1012B000900D11244091930250919402840F951F38
:1012C0009093900280938F024091910250919202EC
:1012D000249FC001259F900D11242D2D0D2C000C55
:1012E000330B20533109820F931F90938E0280930A
:1012F0008D028DCF61701BCF10929F021092A302BE
:101300001092A2021092A4028BE592E090939E02AA
:1013100080939D02E9EBF2E0108214821382158221
:10132000369682E0E53FF807B9F784E092E09093C3
:1013300000038093FF0280E092E090930203809389
:10134000010384E0809303038093040388E092E028
:101350009093FE028093FD028AE090E09093060352
:101360008093050384EF91E0909308038093070333
:1013700010920B0310920A031092F9021092FA02D3
:101380001092FB021092FC02109209038BE08093F2
:101390000C038CE080930D038DE080930E0360E0DE
:1013A0008BE00E94940261E08BE00E94C60260E044
:1013B0008CE00E94C60260E08DE00E94940261E031
:1013C0008DE00C94C60297FB072E16F4009407D00C
:1013D00077FD09D00E94FF0907FC05D03EF49095E7
:1013E00081959F4F0895709561957F4F0895EE0FF9
:1013F000FF1F881F8BBF0790F691E02D1994AA1B41
:10140000BB1B51E107C0AA1FBB1FA617B70710F0EF
:10141000A61BB70B881F991F5A95A9F78095909521
:10142000BC01CD0108950F931F93CF93DF93CDB7E8
:10143000DEB72E970FB6F894DEBF0FBECDBF0E8974
:101440001F89888D998D26E02C831A83098397FF45
:1014500002C080E090E801979E838D83AE01445ED8
:101460005F4F6A8D7B8DCE0101960E94500A4D819F
:101470005E8157FD0AC02F813885421753070CF44F
:101480009A01020F131FF80110822E960FB6F894DE
:10149000DEBF0FBECDBFDF91CF911F910F91089599
:1014A0002F923F924F925F926F927F928F929F9274
:1014B000AF92BF92CF92DF92EF92FF920F931F9362
:1014C000CF93DF9300D000D000D01F921F92CDB7F2
:1014D000DEB77C013B018A01FC0117821682838101
:1014E00081FFDDC1CE0101965C01F7019381F3011B
:1014F00093FD859193FF81913F01882309F453C1A6
:10150000853239F493FD859193FF81913F018532B6
:1015100029F4B70190E00E94680CE7CF912C212CB0
:10152000312CFFE1F31538F08B3211F190F4803259
:1015300009F1833229F137FC3CC020ED280F2A3015
:1015400050F536FE20C08AE0989E200D1124922E80
:1015500006C08D3291F0803371F7689430F8F30152
:1015600093FD859193FF81913F018111DACF21C0D5
:10157000689431F8689432F8F2CF689433F8EFCF7A
:10158000689434F8ECCFEAE02E9E200D1124222E30
:10159000689435F8E4CF8E3229F436FC04C168949F
:1015A00036F8DDCF8C3619F4689437F8D8CF883602
:1015B000B1F2982F9F7D95549330E0F08336A1F1DE
:1015C0008337C1F1833509F063C02801F2E04F0E83
:1015D000511CF801C080D180692D70E036FC02C03A
:1015E0006FEF7FEFC6010E94520C4C01689437F8F0
:1015F00082010AC00C5F1F4FFFE3F98388248394A4
:10160000912C6501E89437F833FE2DC0522C8114DB
:10161000910471F5552009F468CFB70180E290E09C
:101620000E94680C5A94F6CFF801808189830E5F7E
:101630001F4FE4CF2801F2E04F0E511CF801C0808B
:10164000D180692D70E036FC02C06FEF7FEFC601DC
:101650000E945D0C4C018201D5CFB70180E290E081
:101660000E94680C2A942814190409F0B0F7CECF10
:10167000F60137FC859137FE81916F01B70190E04B
:101680000E94680C51105A94F1E08F1A9108BFCF54
:10169000843619F0893609F077C0F80137FE6BC03F
:1016A00060817181828193810C5F1F4FF32DFF76E2
:1016B0003F2E97FF09C090958095709561957F4F5B
:1016C0008F4F9F4F689437F82AE030E0A5010E94C1
:1016D000980CC82ECA188C2C432C36FE0CC0E894EB
:1016E00040F8C91440F434FE05C032FC03C0F32DA9
:1016F000FE7E4F2E892C44FEAAC0FE01EC0DF11D8A
:101700008081803309F09CC0242D297E422E842DB7
:101710008870582E43FCAAC040FEA4C09C2C8214A2
:1017200018F42C0C922C981844FEA6C0B70180E344
:1017300090E00E94680C42FE09C088E790E041FEFC
:1017400002C088E590E0B7010E94680CC91408F453
:101750009FC0CA94D12C9FEFC91AD90ACA0CDB1CAE
:10176000F60182916F01B70190E00E94680CAC1401
:10177000BD04B1F74FCF60817181072E000C880B3B
:10178000990B0E5F1F4F92CFD32CE894D4F82AE028
:1017900030E08537E1F1232D297FD22E8F36A9F154
:1017A000F0F4883551F1F701868197812B960FB6B9
:1017B000F894DEBF0FBECDBFDF91CF911F910F9187
:1017C000FF90EF90DF90CF90BF90AF909F908F9061
:1017D0007F906F905F904F903F902F90089580374B
:1017E00049F0883701F7D4FE02C06894D2F820E1AE
:1017F00030E00DC06894D4F8F6CF34FE03C0822FD9
:101800008660D82E20E132E002C028E030E0F80106
:10181000D7FE0FC060817181828193810C5F1F4F61
:10182000A5010E94980CC82ECA183D2CE89437F8E0
:1018300052CF6081718190E080E00E5F1F4FF0CF4A
:1018400042FC02C0839463CF8394839460CF842D41
:10185000867809F45CCFF6CFB70180E290E00E9471
:10186000680C83948214C0F3512C5ECF522C58180C
:10187000821408F459CFF8CF842D867809F466CF06
:101880008BE241FE80E247FC8DE2B70190E05CCF45
:10189000B70180E390E00E94680C9A9457CF8FEFD5
:1018A0009FEF84CFFC010590615070400110D8F784
:1018B000809590958E0F9F1F0895FC016150704098
:1018C00001900110D8F7809590958E0F9F1F089575
:1018D0000F931F93CF93DF93182F092FEB018B8169
:1018E00081FD09C01FEF0FEF812F902FDF91CF9166
:1018F0001F910F91089582FF14C02E813F818C812A
:101900009D81281739073CF4E881F981CF010196C0
:101910009983888310838E819F8101969F838E8314
:10192000E3CFE885F985812F1995892BA1F3DACFCB
:10193000FA01AA27283051F1203181F1E8946F9300
:101940006E7F6E5F7F4F8F4F9F4FAF4FB1E03ED0A6
:10195000B4E03CD0670F781F891F9A1FA11D680F44
:10196000791F8A1F911DA11D6A0F711D811D911D77
:10197000A11D20D009F468943F912AE0269F1124EC
:101980003019305D3193DEF6CF010895462F477050
:10199000405D4193B3E00FD0C9F7F6CF462F4F70AB
:1019A000405D4A3318F0495D31FD4052419302D009
:1019B000A9F7EACFB4E0A6959795879577956795AF
:1019C000BA95C9F700976105710508959B01AC01AF
:1019D0000A2E06945795479537952795BA95C9F7D6
:1019E000620F731F841F951FA01D0895F894FFCFE9
:1019F00011100F0E151413123738392F3435362ABB
:101A00003132332D44303D2B5361747572646179EA
:101A1000204672696461792020205468757273646D
:101A20006179205765646E65736461795475657377
:101A300064617920204D6F6E646179202020537598
:101A40006E646179202020000000000203C2029130
:101A50000253657454696D653A253034642D253020
:101A600032642D2530326400253032643A2530321C
:081A7000643A253032640000E5
:00000001FF
